{
  "_format": "hh-sol-artifact-1",
  "contractName": "VestingScheduler",
  "sourceName": "contracts/VestingScheduler.sol",
  "abi": [
    {
      "inputs": [
        {
          "internalType": "contract ISuperfluid",
          "name": "host",
          "type": "address"
        },
        {
          "internalType": "string",
          "name": "registrationKey",
          "type": "string"
        }
      ],
      "stateMutability": "nonpayable",
      "type": "constructor"
    },
    {
      "inputs": [],
      "name": "AccountInvalid",
      "type": "error"
    },
    {
      "inputs": [],
      "name": "CliffInvalid",
      "type": "error"
    },
    {
      "inputs": [],
      "name": "FlowRateInvalid",
      "type": "error"
    },
    {
      "inputs": [],
      "name": "HostInvalid",
      "type": "error"
    },
    {
      "inputs": [],
      "name": "ScheduleAlreadyExists",
      "type": "error"
    },
    {
      "inputs": [],
      "name": "ScheduleDoesNotExist",
      "type": "error"
    },
    {
      "inputs": [],
      "name": "ScheduleNotFlowing",
      "type": "error"
    },
    {
      "inputs": [],
      "name": "TimeWindowInvalid",
      "type": "error"
    },
    {
      "inputs": [],
      "name": "ZeroAddress",
      "type": "error"
    },
    {
      "anonymous": false,
      "inputs": [
        {
          "indexed": true,
          "internalType": "contract ISuperToken",
          "name": "superToken",
          "type": "address"
        },
        {
          "indexed": true,
          "internalType": "address",
          "name": "sender",
          "type": "address"
        },
        {
          "indexed": true,
          "internalType": "address",
          "name": "receiver",
          "type": "address"
        },
        {
          "indexed": false,
          "internalType": "uint32",
          "name": "cliffAndFlowDate",
          "type": "uint32"
        },
        {
          "indexed": false,
          "internalType": "int96",
          "name": "flowRate",
          "type": "int96"
        },
        {
          "indexed": false,
          "internalType": "uint256",
          "name": "cliffAmount",
          "type": "uint256"
        },
        {
          "indexed": false,
          "internalType": "uint256",
          "name": "flowDelayCompensation",
          "type": "uint256"
        }
      ],
      "name": "VestingCliffAndFlowExecuted",
      "type": "event"
    },
    {
      "anonymous": false,
      "inputs": [
        {
          "indexed": true,
          "internalType": "contract ISuperToken",
          "name": "superToken",
          "type": "address"
        },
        {
          "indexed": true,
          "internalType": "address",
          "name": "sender",
          "type": "address"
        },
        {
          "indexed": true,
          "internalType": "address",
          "name": "receiver",
          "type": "address"
        },
        {
          "indexed": false,
          "internalType": "uint32",
          "name": "endDate",
          "type": "uint32"
        },
        {
          "indexed": false,
          "internalType": "uint256",
          "name": "earlyEndCompensation",
          "type": "uint256"
        },
        {
          "indexed": false,
          "internalType": "bool",
          "name": "didCompensationFail",
          "type": "bool"
        }
      ],
      "name": "VestingEndExecuted",
      "type": "event"
    },
    {
      "anonymous": false,
      "inputs": [
        {
          "indexed": true,
          "internalType": "contract ISuperToken",
          "name": "superToken",
          "type": "address"
        },
        {
          "indexed": true,
          "internalType": "address",
          "name": "sender",
          "type": "address"
        },
        {
          "indexed": true,
          "internalType": "address",
          "name": "receiver",
          "type": "address"
        },
        {
          "indexed": false,
          "internalType": "uint32",
          "name": "endDate",
          "type": "uint32"
        }
      ],
      "name": "VestingEndFailed",
      "type": "event"
    },
    {
      "anonymous": false,
      "inputs": [
        {
          "indexed": true,
          "internalType": "contract ISuperToken",
          "name": "superToken",
          "type": "address"
        },
        {
          "indexed": true,
          "internalType": "address",
          "name": "sender",
          "type": "address"
        },
        {
          "indexed": true,
          "internalType": "address",
          "name": "receiver",
          "type": "address"
        },
        {
          "indexed": false,
          "internalType": "uint32",
          "name": "startDate",
          "type": "uint32"
        },
        {
          "indexed": false,
          "internalType": "uint32",
          "name": "cliffDate",
          "type": "uint32"
        },
        {
          "indexed": false,
          "internalType": "int96",
          "name": "flowRate",
          "type": "int96"
        },
        {
          "indexed": false,
          "internalType": "uint32",
          "name": "endDate",
          "type": "uint32"
        },
        {
          "indexed": false,
          "internalType": "uint256",
          "name": "cliffAmount",
          "type": "uint256"
        },
        {
          "indexed": false,
          "internalType": "uint256",
          "name": "remainderAmount",
          "type": "uint256"
        }
      ],
      "name": "VestingScheduleCreated",
      "type": "event"
    },
    {
      "anonymous": false,
      "inputs": [
        {
          "indexed": true,
          "internalType": "contract ISuperToken",
          "name": "superToken",
          "type": "address"
        },
        {
          "indexed": true,
          "internalType": "address",
          "name": "sender",
          "type": "address"
        },
        {
          "indexed": true,
          "internalType": "address",
          "name": "receiver",
          "type": "address"
        }
      ],
      "name": "VestingScheduleDeleted",
      "type": "event"
    },
    {
      "anonymous": false,
      "inputs": [
        {
          "indexed": true,
          "internalType": "contract ISuperToken",
          "name": "superToken",
          "type": "address"
        },
        {
          "indexed": true,
          "internalType": "address",
          "name": "sender",
          "type": "address"
        },
        {
          "indexed": true,
          "internalType": "address",
          "name": "receiver",
          "type": "address"
        },
        {
          "indexed": false,
          "internalType": "uint32",
          "name": "oldEndDate",
          "type": "uint32"
        },
        {
          "indexed": false,
          "internalType": "uint32",
          "name": "endDate",
          "type": "uint32"
        }
      ],
      "name": "VestingScheduleUpdated",
      "type": "event"
    },
    {
      "inputs": [],
      "name": "END_DATE_VALID_BEFORE",
      "outputs": [
        {
          "internalType": "uint32",
          "name": "",
          "type": "uint32"
        }
      ],
      "stateMutability": "view",
      "type": "function"
    },
    {
      "inputs": [],
      "name": "MIN_VESTING_DURATION",
      "outputs": [
        {
          "internalType": "uint32",
          "name": "",
          "type": "uint32"
        }
      ],
      "stateMutability": "view",
      "type": "function"
    },
    {
      "inputs": [],
      "name": "START_DATE_VALID_AFTER",
      "outputs": [
        {
          "internalType": "uint32",
          "name": "",
          "type": "uint32"
        }
      ],
      "stateMutability": "view",
      "type": "function"
    },
    {
      "inputs": [
        {
          "internalType": "contract ISuperToken",
          "name": "",
          "type": "address"
        },
        {
          "internalType": "address",
          "name": "",
          "type": "address"
        },
        {
          "internalType": "bytes32",
          "name": "",
          "type": "bytes32"
        },
        {
          "internalType": "bytes",
          "name": "",
          "type": "bytes"
        },
        {
          "internalType": "bytes",
          "name": "",
          "type": "bytes"
        },
        {
          "internalType": "bytes",
          "name": "",
          "type": "bytes"
        }
      ],
      "name": "afterAgreementCreated",
      "outputs": [
        {
          "internalType": "bytes",
          "name": "",
          "type": "bytes"
        }
      ],
      "stateMutability": "nonpayable",
      "type": "function"
    },
    {
      "inputs": [
        {
          "internalType": "contract ISuperToken",
          "name": "",
          "type": "address"
        },
        {
          "internalType": "address",
          "name": "",
          "type": "address"
        },
        {
          "internalType": "bytes32",
          "name": "",
          "type": "bytes32"
        },
        {
          "internalType": "bytes",
          "name": "",
          "type": "bytes"
        },
        {
          "internalType": "bytes",
          "name": "",
          "type": "bytes"
        },
        {
          "internalType": "bytes",
          "name": "",
          "type": "bytes"
        }
      ],
      "name": "afterAgreementTerminated",
      "outputs": [
        {
          "internalType": "bytes",
          "name": "",
          "type": "bytes"
        }
      ],
      "stateMutability": "nonpayable",
      "type": "function"
    },
    {
      "inputs": [
        {
          "internalType": "contract ISuperToken",
          "name": "",
          "type": "address"
        },
        {
          "internalType": "address",
          "name": "",
          "type": "address"
        },
        {
          "internalType": "bytes32",
          "name": "",
          "type": "bytes32"
        },
        {
          "internalType": "bytes",
          "name": "",
          "type": "bytes"
        },
        {
          "internalType": "bytes",
          "name": "",
          "type": "bytes"
        },
        {
          "internalType": "bytes",
          "name": "",
          "type": "bytes"
        }
      ],
      "name": "afterAgreementUpdated",
      "outputs": [
        {
          "internalType": "bytes",
          "name": "",
          "type": "bytes"
        }
      ],
      "stateMutability": "nonpayable",
      "type": "function"
    },
    {
      "inputs": [
        {
          "internalType": "contract ISuperToken",
          "name": "",
          "type": "address"
        },
        {
          "internalType": "address",
          "name": "",
          "type": "address"
        },
        {
          "internalType": "bytes32",
          "name": "",
          "type": "bytes32"
        },
        {
          "internalType": "bytes",
          "name": "",
          "type": "bytes"
        },
        {
          "internalType": "bytes",
          "name": "",
          "type": "bytes"
        }
      ],
      "name": "beforeAgreementCreated",
      "outputs": [
        {
          "internalType": "bytes",
          "name": "",
          "type": "bytes"
        }
      ],
      "stateMutability": "view",
      "type": "function"
    },
    {
      "inputs": [
        {
          "internalType": "contract ISuperToken",
          "name": "",
          "type": "address"
        },
        {
          "internalType": "address",
          "name": "",
          "type": "address"
        },
        {
          "internalType": "bytes32",
          "name": "",
          "type": "bytes32"
        },
        {
          "internalType": "bytes",
          "name": "",
          "type": "bytes"
        },
        {
          "internalType": "bytes",
          "name": "",
          "type": "bytes"
        }
      ],
      "name": "beforeAgreementTerminated",
      "outputs": [
        {
          "internalType": "bytes",
          "name": "",
          "type": "bytes"
        }
      ],
      "stateMutability": "view",
      "type": "function"
    },
    {
      "inputs": [
        {
          "internalType": "contract ISuperToken",
          "name": "",
          "type": "address"
        },
        {
          "internalType": "address",
          "name": "",
          "type": "address"
        },
        {
          "internalType": "bytes32",
          "name": "",
          "type": "bytes32"
        },
        {
          "internalType": "bytes",
          "name": "",
          "type": "bytes"
        },
        {
          "internalType": "bytes",
          "name": "",
          "type": "bytes"
        }
      ],
      "name": "beforeAgreementUpdated",
      "outputs": [
        {
          "internalType": "bytes",
          "name": "",
          "type": "bytes"
        }
      ],
      "stateMutability": "view",
      "type": "function"
    },
    {
      "inputs": [],
      "name": "cfaV1",
      "outputs": [
        {
          "internalType": "contract ISuperfluid",
          "name": "host",
          "type": "address"
        },
        {
          "internalType": "contract IConstantFlowAgreementV1",
          "name": "cfa",
          "type": "address"
        }
      ],
      "stateMutability": "view",
      "type": "function"
    },
    {
      "inputs": [
        {
          "internalType": "contract ISuperToken",
          "name": "superToken",
          "type": "address"
        },
        {
          "internalType": "address",
          "name": "receiver",
          "type": "address"
        },
        {
          "internalType": "uint256",
          "name": "totalAmount",
          "type": "uint256"
        },
        {
          "internalType": "uint32",
          "name": "totalDuration",
          "type": "uint32"
        },
        {
          "internalType": "uint32",
          "name": "cliffPeriod",
          "type": "uint32"
        },
        {
          "internalType": "bytes",
          "name": "ctx",
          "type": "bytes"
        }
      ],
      "name": "createAndExecuteVestingScheduleFromAmountAndDuration",
      "outputs": [
        {
          "internalType": "bytes",
          "name": "newCtx",
          "type": "bytes"
        }
      ],
      "stateMutability": "nonpayable",
      "type": "function"
    },
    {
      "inputs": [
        {
          "internalType": "contract ISuperToken",
          "name": "superToken",
          "type": "address"
        },
        {
          "internalType": "address",
          "name": "receiver",
          "type": "address"
        },
        {
          "internalType": "uint256",
          "name": "totalAmount",
          "type": "uint256"
        },
        {
          "internalType": "uint32",
          "name": "totalDuration",
          "type": "uint32"
        },
        {
          "internalType": "uint32",
          "name": "cliffPeriod",
          "type": "uint32"
        }
      ],
      "name": "createAndExecuteVestingScheduleFromAmountAndDuration",
      "outputs": [],
      "stateMutability": "nonpayable",
      "type": "function"
    },
    {
      "inputs": [
        {
          "internalType": "contract ISuperToken",
          "name": "superToken",
          "type": "address"
        },
        {
          "internalType": "address",
          "name": "receiver",
          "type": "address"
        },
        {
          "internalType": "uint256",
          "name": "totalAmount",
          "type": "uint256"
        },
        {
          "internalType": "uint32",
          "name": "totalDuration",
          "type": "uint32"
        }
      ],
      "name": "createAndExecuteVestingScheduleFromAmountAndDuration",
      "outputs": [],
      "stateMutability": "nonpayable",
      "type": "function"
    },
    {
      "inputs": [
        {
          "internalType": "contract ISuperToken",
          "name": "superToken",
          "type": "address"
        },
        {
          "internalType": "address",
          "name": "receiver",
          "type": "address"
        },
        {
          "internalType": "uint32",
          "name": "startDate",
          "type": "uint32"
        },
        {
          "internalType": "uint32",
          "name": "cliffDate",
          "type": "uint32"
        },
        {
          "internalType": "int96",
          "name": "flowRate",
          "type": "int96"
        },
        {
          "internalType": "uint256",
          "name": "cliffAmount",
          "type": "uint256"
        },
        {
          "internalType": "uint32",
          "name": "endDate",
          "type": "uint32"
        },
        {
          "internalType": "bytes",
          "name": "ctx",
          "type": "bytes"
        }
      ],
      "name": "createVestingSchedule",
      "outputs": [
        {
          "internalType": "bytes",
          "name": "newCtx",
          "type": "bytes"
        }
      ],
      "stateMutability": "nonpayable",
      "type": "function"
    },
    {
      "inputs": [
        {
          "internalType": "contract ISuperToken",
          "name": "superToken",
          "type": "address"
        },
        {
          "internalType": "address",
          "name": "receiver",
          "type": "address"
        },
        {
          "internalType": "uint32",
          "name": "startDate",
          "type": "uint32"
        },
        {
          "internalType": "uint32",
          "name": "cliffDate",
          "type": "uint32"
        },
        {
          "internalType": "int96",
          "name": "flowRate",
          "type": "int96"
        },
        {
          "internalType": "uint256",
          "name": "cliffAmount",
          "type": "uint256"
        },
        {
          "internalType": "uint32",
          "name": "endDate",
          "type": "uint32"
        }
      ],
      "name": "createVestingSchedule",
      "outputs": [],
      "stateMutability": "nonpayable",
      "type": "function"
    },
    {
      "inputs": [
        {
          "internalType": "contract ISuperToken",
          "name": "superToken",
          "type": "address"
        },
        {
          "internalType": "address",
          "name": "receiver",
          "type": "address"
        },
        {
          "internalType": "uint256",
          "name": "totalAmount",
          "type": "uint256"
        },
        {
          "internalType": "uint32",
          "name": "totalDuration",
          "type": "uint32"
        }
      ],
      "name": "createVestingScheduleFromAmountAndDuration",
      "outputs": [],
      "stateMutability": "nonpayable",
      "type": "function"
    },
    {
      "inputs": [
        {
          "internalType": "contract ISuperToken",
          "name": "superToken",
          "type": "address"
        },
        {
          "internalType": "address",
          "name": "receiver",
          "type": "address"
        },
        {
          "internalType": "uint256",
          "name": "totalAmount",
          "type": "uint256"
        },
        {
          "internalType": "uint32",
          "name": "totalDuration",
          "type": "uint32"
        },
        {
          "internalType": "uint32",
          "name": "cliffPeriod",
          "type": "uint32"
        },
        {
          "internalType": "uint32",
          "name": "startDate",
          "type": "uint32"
        },
        {
          "internalType": "bytes",
          "name": "ctx",
          "type": "bytes"
        }
      ],
      "name": "createVestingScheduleFromAmountAndDuration",
      "outputs": [
        {
          "internalType": "bytes",
          "name": "newCtx",
          "type": "bytes"
        }
      ],
      "stateMutability": "nonpayable",
      "type": "function"
    },
    {
      "inputs": [
        {
          "internalType": "contract ISuperToken",
          "name": "superToken",
          "type": "address"
        },
        {
          "internalType": "address",
          "name": "receiver",
          "type": "address"
        },
        {
          "internalType": "uint256",
          "name": "totalAmount",
          "type": "uint256"
        },
        {
          "internalType": "uint32",
          "name": "totalDuration",
          "type": "uint32"
        },
        {
          "internalType": "uint32",
          "name": "cliffPeriod",
          "type": "uint32"
        },
        {
          "internalType": "uint32",
          "name": "startDate",
          "type": "uint32"
        }
      ],
      "name": "createVestingScheduleFromAmountAndDuration",
      "outputs": [],
      "stateMutability": "nonpayable",
      "type": "function"
    },
    {
      "inputs": [
        {
          "internalType": "contract ISuperToken",
          "name": "superToken",
          "type": "address"
        },
        {
          "internalType": "address",
          "name": "receiver",
          "type": "address"
        },
        {
          "internalType": "uint256",
          "name": "totalAmount",
          "type": "uint256"
        },
        {
          "internalType": "uint32",
          "name": "totalDuration",
          "type": "uint32"
        },
        {
          "internalType": "uint32",
          "name": "cliffPeriod",
          "type": "uint32"
        }
      ],
      "name": "createVestingScheduleFromAmountAndDuration",
      "outputs": [],
      "stateMutability": "nonpayable",
      "type": "function"
    },
    {
      "inputs": [
        {
          "internalType": "contract ISuperToken",
          "name": "superToken",
          "type": "address"
        },
        {
          "internalType": "address",
          "name": "receiver",
          "type": "address"
        },
        {
          "internalType": "bytes",
          "name": "ctx",
          "type": "bytes"
        }
      ],
      "name": "deleteVestingSchedule",
      "outputs": [
        {
          "internalType": "bytes",
          "name": "newCtx",
          "type": "bytes"
        }
      ],
      "stateMutability": "nonpayable",
      "type": "function"
    },
    {
      "inputs": [
        {
          "internalType": "contract ISuperToken",
          "name": "superToken",
          "type": "address"
        },
        {
          "internalType": "address",
          "name": "sender",
          "type": "address"
        },
        {
          "internalType": "address",
          "name": "receiver",
          "type": "address"
        }
      ],
      "name": "executeCliffAndFlow",
      "outputs": [
        {
          "internalType": "bool",
          "name": "success",
          "type": "bool"
        }
      ],
      "stateMutability": "nonpayable",
      "type": "function"
    },
    {
      "inputs": [
        {
          "internalType": "contract ISuperToken",
          "name": "superToken",
          "type": "address"
        },
        {
          "internalType": "address",
          "name": "sender",
          "type": "address"
        },
        {
          "internalType": "address",
          "name": "receiver",
          "type": "address"
        }
      ],
      "name": "executeEndVesting",
      "outputs": [
        {
          "internalType": "bool",
          "name": "success",
          "type": "bool"
        }
      ],
      "stateMutability": "nonpayable",
      "type": "function"
    },
    {
      "inputs": [
        {
          "internalType": "address",
          "name": "supertoken",
          "type": "address"
        },
        {
          "internalType": "address",
          "name": "sender",
          "type": "address"
        },
        {
          "internalType": "address",
          "name": "receiver",
          "type": "address"
        }
      ],
      "name": "getVestingSchedule",
      "outputs": [
        {
          "components": [
            {
              "internalType": "uint32",
              "name": "cliffAndFlowDate",
              "type": "uint32"
            },
            {
              "internalType": "uint32",
              "name": "endDate",
              "type": "uint32"
            },
            {
              "internalType": "int96",
              "name": "flowRate",
              "type": "int96"
            },
            {
              "internalType": "uint256",
              "name": "cliffAmount",
              "type": "uint256"
            },
            {
              "internalType": "uint256",
              "name": "remainderAmount",
              "type": "uint256"
            }
          ],
          "internalType": "struct IVestingScheduler.VestingSchedule",
          "name": "",
          "type": "tuple"
        }
      ],
      "stateMutability": "view",
      "type": "function"
    },
    {
      "inputs": [
        {
          "internalType": "contract ISuperToken",
          "name": "superToken",
          "type": "address"
        },
        {
          "internalType": "address",
          "name": "receiver",
          "type": "address"
        },
        {
          "internalType": "uint32",
          "name": "endDate",
          "type": "uint32"
        },
        {
          "internalType": "bytes",
          "name": "ctx",
          "type": "bytes"
        }
      ],
      "name": "updateVestingSchedule",
      "outputs": [
        {
          "internalType": "bytes",
          "name": "newCtx",
          "type": "bytes"
        }
      ],
      "stateMutability": "nonpayable",
      "type": "function"
    },
    {
      "inputs": [
        {
          "internalType": "bytes32",
          "name": "",
          "type": "bytes32"
        }
      ],
      "name": "vestingSchedules",
      "outputs": [
        {
          "internalType": "uint32",
          "name": "cliffAndFlowDate",
          "type": "uint32"
        },
        {
          "internalType": "uint32",
          "name": "endDate",
          "type": "uint32"
        },
        {
          "internalType": "int96",
          "name": "flowRate",
          "type": "int96"
        },
        {
          "internalType": "uint256",
          "name": "cliffAmount",
          "type": "uint256"
        },
        {
          "internalType": "uint256",
          "name": "remainderAmount",
          "type": "uint256"
        }
      ],
      "stateMutability": "view",
      "type": "function"
    }
  ],
  "bytecode": "0x60806040523480156200001157600080fd5b50604051620028c6380380620028c68339810160408190526200003491620001cc565b6040805180820182526001600160a01b0384168082529151635b69006f60e11b81527fa9214cc96615e0085d3bb077758db69497dc2dce3b2b1e97bc93c3d18d83efd360048201529091602083019163b6d200de90602401602060405180830381865afa158015620000aa573d6000803e3d6000fd5b505050506040513d601f19601f82011682018060405250810190620000d091906200029c565b6001600160a01b039081169091528151600080549183166001600160a01b031992831617905560209092015160018054918316919093161790915560405163bd1c448b60e01b8152643f000000019184169063bd1c448b906200013a9084908690600401620002c3565b600060405180830381600087803b1580156200015557600080fd5b505af11580156200016a573d6000803e3d6000fd5b50505050505050620002ff565b6001600160a01b03811681146200018d57600080fd5b50565b634e487b7160e01b600052604160045260246000fd5b60005b83811015620001c3578181015183820152602001620001a9565b50506000910152565b60008060408385031215620001e057600080fd5b8251620001ed8162000177565b60208401519092506001600160401b03808211156200020b57600080fd5b818501915085601f8301126200022057600080fd5b81518181111562000235576200023562000190565b604051601f8201601f19908116603f0116810190838211818310171562000260576200026062000190565b816040528281528860208487010111156200027a57600080fd5b6200028d836020830160208801620001a6565b80955050505050509250929050565b600060208284031215620002af57600080fd5b8151620002bc8162000177565b9392505050565b8281526040602082015260008251806040840152620002ea816060850160208701620001a6565b601f01601f1916919091016060019392505050565b6125b7806200030f6000396000f3fe608060405234801561001057600080fd5b50600436106101735760003560e01c8063835942d7116100de5780639c4e89ba11610097578063d3112b2e11610071578063d3112b2e146103f5578063d86ed3e51461042f578063dd58ca6e14610442578063f67b5c7e1461045557600080fd5b80639c4e89ba146103bc578063ac42347a146103cf578063b6559d83146103e257600080fd5b8063835942d7146102fb57806383cca62a1461030e578063884d1f401461032157806389a1976f146103345780639223d9c11461039657806396bc3257146103a957600080fd5b80636041788711610130578063604178871461020357806371de407e1461028a5780637648e965146102ad5780637af9ae8a146102c05780637ccd3e79146102d557806380370031146102e857600080fd5b8063230dbd29146101785780632719e010146101a15780633011071e146101c057806330d9c915146101ca57806353c11f99146101dd5780635f9e7d77146101f0575b600080fd5b61018b610186366004611a16565b61045f565b6040516101989190611b30565b60405180910390f35b6101ab6203f48081565b60405163ffffffff9091168152602001610198565b6101ab62093a8081565b61018b6101d8366004611b43565b6104c6565b61018b6101eb366004611a16565b610529565b61018b6101fe366004611b43565b61058e565b610251610211366004611be1565b600260208190526000918252604090912080546001820154919092015463ffffffff80841693600160201b810490911692600160401b909104600b0b9185565b6040805163ffffffff9687168152959094166020860152600b9290920b928401929092526060830191909152608082015260a001610198565b61029d610298366004611bfa565b6105f5565b6040519015158152602001610198565b61018b6102bb366004611d54565b6108d2565b6102d36102ce366004611e04565b6108f3565b005b61018b6102e3366004611e55565b610919565b61018b6102f6366004611ee0565b610934565b61018b610309366004611f7d565b610951565b6102d361031c366004611fef565b610ada565b61018b61032f366004611b43565b610b01565b610347610342366004611bfa565b610b64565b6040516101989190600060a08201905063ffffffff808451168352806020850151166020840152506040830151600b0b6040830152606083015160608301526080830151608083015292915050565b61029d6103a4366004611bfa565b610c21565b6102d36103b7366004612060565b610c36565b6102d36103ca3660046120e5565b610c61565b61018b6103dd366004612147565b610c87565b6102d36103f03660046120e5565b610d72565b60005460015461040f916001600160a01b03908116911682565b604080516001600160a01b03938416815292909116602083015201610198565b61018b61043d366004611a16565b610d8f565b6102d3610450366004611e04565b610df1565b6101ab6201518081565b60405162461bcd60e51b815260206004820152602e60248201527f556e737570706f727465642063616c6c6261636b202d2041667465722041677260448201526d19595b595b9d08155c19185d195960921b60648201526060906084015b60405180910390fd5b60405162461bcd60e51b815260206004820152602f60248201527f556e737570706f727465642063616c6c6261636b202d204265666f726520416760448201526e1c99595b595b9d0810dc99585d1959608a1b60648201526060906084016104bd565b60405162461bcd60e51b815260206004820152603160248201527f556e737570706f727465642063616c6c6261636b202d2041667465722041677260448201527019595b595b9d0815195c9b5a5b985d1959607a1b60648201526060906084016104bd565b60405162461bcd60e51b815260206004820152603360248201527f556e737570706f727465642063616c6c6261636b202d20204265666f7265204160448201527219dc99595b595b9d0815195c9b5a5b985d1959606a1b60648201526060906084016104bd565b60008084848460405160200161060d939291906121a8565b60408051601f198184030181528282528051602091820120600081815260028084529084902060a086018552805463ffffffff8082168852600160201b820416948701859052600160401b9004600b0b948601949094526001840154606086015292909201546080840152909250429061068b9062015180906121ed565b63ffffffff1611156106b057604051633a230cd960e01b815260040160405180910390fd5b6000828152600260208190526040822080546001600160a01b03191681556001810183905501556106e2868686610e0f565b15610860576106f46000868689610ea2565b50600042826020015163ffffffff161161070f57600061074c565b816080015182604001516001600160601b031642846020015163ffffffff166107389190612211565b6107429190612224565b61074c919061223b565b60208301519091504263ffffffff9091161081156107e1576040516323b872dd60e01b81526001600160a01b0388811660048301528781166024830152604482018490528916906323b872dd906064016020604051808303816000875af11580156107bb573d6000803e3d6000fd5b505050506040513d601f19601f820116820180604052508101906107df919061224e565b505b856001600160a01b0316876001600160a01b0316896001600160a01b03167f18c0f95c8f947c789fc5b704b2f1299671614639c64bf6af260bd210bc184ba2866020015186866040516108519392919063ffffffff93909316835260208301919091521515604082015260600190565b60405180910390a450506108c6565b836001600160a01b0316856001600160a01b0316876001600160a01b03167fcb5ed4b0fc620b552fbd3a82d5fb0f9a57eb30a7ef218f4a4974b871f648f6e884602001516040516108bd919063ffffffff91909116815260200190565b60405180910390a45b50600195945050505050565b60606108e68989898989898960008a610ece565b9998505050505050505050565b6109128484848460004260405180602001604052806000815250611268565b5050505050565b606061092987878787878761132f565b979650505050505050565b606061094588888888888888611268565b98975050505050505050565b80600061095d82611371565b90506000868287604051602001610976939291906121a8565b60408051601f198184030181528282528051602091820120600081815260028084529084902060a086018552805463ffffffff8082168852600160201b8204811695880195909552600160401b9004600b0b9486019490945260018401546060860152929092015460808401529092504290871611610a0857604051633a230cd960e01b815260040160405180910390fd5b805163ffffffff16151580610a255750602081015163ffffffff16155b15610a435760405163e23d21e760e01b815260040160405180910390fd5b6000828152600260208181526040808420805467ffffffff000000001916600160201b63ffffffff8d8116918202929092178355919094019490945584820151815193168352908201929092526001600160a01b038981169286821692918c16917f5656285dd3a31235e7b67252cd44c997ee7a3d1b7656497c444212a7caa30c3e910160405180910390a4505050949350505050565b610af886868686868660405180602001604052806000815250611268565b50505050505050565b60405162461bcd60e51b815260206004820152602f60248201527f556e737570706f727465642063616c6c6261636b202d204265666f726520416760448201526e1c99595b595b9d081d5c19185d1959608a1b60648201526060906084016104bd565b6040805160a08101825260008082526020820181905291810182905260608101829052608081019190915260026000858585604051602001610ba8939291906121a8565b60408051808303601f190181529181528151602092830120835282820193909352908201600020825160a081018452815463ffffffff8082168352600160201b82041693820193909352600160401b909204600b0b92820192909252600182015460608201526002909101546080820152949350505050565b6000610c2e848484611445565b949350505050565b610c5787878787878787600060405180602001604052806000815250610ece565b5050505050505050565b610c7f85858585854260405180602001604052806000815250611268565b505050505050565b806000610c9382611371565b90506000858286604051602001610cac939291906121a8565b60408051808303601f19018152918152815160209283012060008181526002909352912054909150600160201b900463ffffffff1615610d5057600081815260026020819052604080832080546001600160a01b031916815560018101849055909101829055516001600160a01b038088169285821692918a16917fffdbd3e70c7da1df271588aaf77ca99625058da916f9d29cdc13d6f8e4f900ab9190a4610d69565b6040516319cfbfcd60e11b815260040160405180910390fd5b50509392505050565b610c7f85858585856040518060200160405280600081525061132f565b60405162461bcd60e51b815260206004820152602e60248201527f556e737570706f727465642063616c6c6261636b202d2041667465722041677260448201526d19595b595b9d0810dc99585d195960921b60648201526060906084016104bd565b6109128484848460006040518060200160405280600081525061132f565b600154604051631cd43d1160e31b81526001600160a01b03858116600483015284811660248301528381166044830152600092839291169063e6a1e88890606401608060405180830381865afa158015610e6d573d6000803e3d6000fd5b505050506040513d601f19601f82011682018060405250810190610e919190612277565b5050600b0b15159695505050505050565b604080516000815260208101909152606090610ec59086908690869086906116a2565b95945050505050565b806000610eda82611371565b90506001600160a01b038a161580610f035750806001600160a01b03168a6001600160a01b0316145b15610f215760405163a9c6791d60e01b815260040160405180910390fd5b6001600160a01b038b16610f485760405163d92e233d60e01b815260040160405180910390fd5b600087600b0b13610f6c576040516308bea1af60e41b815260040160405180910390fd5b63ffffffff881615801590610f8c57508763ffffffff168963ffffffff16115b15610faa57604051633a230cd960e01b815260040160405180910390fd5b63ffffffff8816158015610fbd57508515155b15610fdb57604051635357da6360e01b815260040160405180910390fd5b600063ffffffff891615610fef5788610ff1565b895b9050428163ffffffff16108061101357508563ffffffff168163ffffffff1610155b80611042575061102662015180876121ed565b63ffffffff166110396203f480836122b5565b63ffffffff1610155b8061105e575062093a8061105682886121ed565b63ffffffff16105b1561107c57604051633a230cd960e01b815260040160405180910390fd5b60008c838d604051602001611093939291906121a8565b60408051808303601f19018152918152815160209283012060008181526002909352912054909150600160201b900463ffffffff16156110e65760405163e109c26360e01b815260040160405180910390fd5b6040518060a001604052808363ffffffff1681526020018863ffffffff1681526020018a600b0b8152602001898152602001878152506002600083815260200190815260200160002060008201518160000160006101000a81548163ffffffff021916908363ffffffff16021790555060208201518160000160046101000a81548163ffffffff021916908363ffffffff16021790555060408201518160000160086101000a8154816001600160601b030219169083600b0b6001600160601b0316021790555060608201518160010155608082015181600201559050508b6001600160a01b0316836001600160a01b03168e6001600160a01b03167f2d16de0af58e2bcc63087cf0d7d33bf8001f4b177ec15ef2eec09ada56b5077c8e8e8e8d8f8e6040516112509695949392919063ffffffff96871681529486166020860152600b9390930b604085015293166060830152608082019290925260a081019190915260c00190565b60405180910390a45050509998505050505050505050565b6060600061127686856122b5565b9050600061129a61129561129063ffffffff8a168b6122e8565b611787565b6117f5565b905060006112aa82600b0b611858565b6112b4908a6122fc565b90508663ffffffff166000036112de576112d78b8b88600086600089888d610ece565b9350611321565b60006112ea88886122b5565b905060006113098963ffffffff1661130486600b0b611858565b6118aa565b905061131c8d8d8a8588868b8a8f610ece565b955050505b505050979650505050505050565b606061134087878787874288611268565b9050600061134d83611371565b905061135a888289611445565b61136657611366612310565b509695505050505050565b60008151600014611427576000546001600160a01b031633146113a757604051632772d7f360e21b815260040160405180910390fd5b600054604051631fb6491d60e11b81526001600160a01b0390911690633f6c923a906113d7908590600401611b30565b600060405180830381865afa1580156113f4573d6000803e3d6000fd5b505050506040513d6000823e601f3d908101601f1916820160405261141c919081019061239f565b60600151905061142a565b50335b6001600160a01b03811661144057611440612310565b919050565b60008084848460405160200161145d939291906121a8565b60408051601f198184030181528282528051602091820120600081815260028084529084902060a086018552805463ffffffff808216808952600160201b830490911695880195909552600160401b9004600b0b9486019490945260018401546060860152929092015460808401529092504210806114f15750805142906114e9906203f480906122b5565b63ffffffff16105b1561150f57604051633a230cd960e01b815260040160405180910390fd5b600082815260026020526040808220805463ffffffff1916815560010182905582015182516001600160601b03909116906115509063ffffffff1642612211565b61155a9190612224565b90508160600151600014158061156f57508015155b1561160f57866001600160a01b03166323b872dd8787848660600151611595919061223b565b6040516001600160e01b031960e086901b1681526001600160a01b03938416600482015292909116602483015260448201526064016020604051808303816000875af11580156115e9573d6000803e3d6000fd5b505050506040513d601f19601f8201168201806040525081019061160d919061224e565b505b604082015161162690600090889088908b906118bf565b508151604080840151606080860151835163ffffffff9095168552600b9290920b60208501529183015281018290526001600160a01b0380871691888216918a16907f55b5747e4a57fe6e94a7f59d179a30836f6f42c9b33d2aa3a8887107510952a49060800160405180910390a45060019695505050505050565b845460018601546040805160008152602081019091526060926001600160a01b03908116926339255d5b929116908190634c8b181f906116eb9089908c908c90604481016124a5565b60408051808303601f1901815291815260208201805160e094851b6001600160e01b03909116179052519185901b6001600160e01b03191682526117369392509087906004016124d9565b6000604051808303816000875af1158015611755573d6000803e3d6000fd5b505050506040513d6000823e601f3d908101601f1916820160405261177d919081019061250f565b9695505050505050565b60006001600160ff1b038211156117f15760405162461bcd60e51b815260206004820152602860248201527f53616665436173743a2076616c756520646f65736e27742066697420696e2061604482015267371034b73a191a9b60c11b60648201526084016104bd565b5090565b80600b81900b81146114405760405162461bcd60e51b815260206004820152602660248201527f53616665436173743a2076616c756520646f65736e27742066697420696e203960448201526536206269747360d01b60648201526084016104bd565b6000808212156117f15760405162461bcd60e51b815260206004820181905260248201527f53616665436173743a2076616c7565206d75737420626520706f73697469766560448201526064016104bd565b60006118b68284612224565b90505b92915050565b604080516000808252875460018901546020840192835283850190945260609361177d938a938a938a938a938a9390928a926001600160a01b03918216926339255d5b929091169081906394229ecb90611924908a908d908d908c9060648d01612543565b60408051808303601f1901815291815260208201805160e094851b6001600160e01b03909116179052519185901b6001600160e01b031916825261196f9392509087906004016124d9565b6000604051808303816000875af115801561198e573d6000803e3d6000fd5b505050506040513d6000823e601f3d908101601f19168201604052610929919081019061250f565b6001600160a01b03811681146119cb57600080fd5b50565b60008083601f8401126119e057600080fd5b5081356001600160401b038111156119f757600080fd5b602083019150836020828501011115611a0f57600080fd5b9250929050565b600080600080600080600080600060c08a8c031215611a3457600080fd5b8935611a3f816119b6565b985060208a0135611a4f816119b6565b975060408a0135965060608a01356001600160401b0380821115611a7257600080fd5b611a7e8d838e016119ce565b909850965060808c0135915080821115611a9757600080fd5b611aa38d838e016119ce565b909650945060a08c0135915080821115611abc57600080fd5b50611ac98c828d016119ce565b915080935050809150509295985092959850929598565b60005b83811015611afb578181015183820152602001611ae3565b50506000910152565b60008151808452611b1c816020860160208601611ae0565b601f01601f19169290920160200192915050565b6020815260006118b66020830184611b04565b600080600080600080600060a0888a031215611b5e57600080fd5b8735611b69816119b6565b96506020880135611b79816119b6565b95506040880135945060608801356001600160401b0380821115611b9c57600080fd5b611ba88b838c016119ce565b909650945060808a0135915080821115611bc157600080fd5b50611bce8a828b016119ce565b989b979a50959850939692959293505050565b600060208284031215611bf357600080fd5b5035919050565b600080600060608486031215611c0f57600080fd5b8335611c1a816119b6565b92506020840135611c2a816119b6565b91506040840135611c3a816119b6565b809150509250925092565b803563ffffffff8116811461144057600080fd5b80600b0b81146119cb57600080fd5b634e487b7160e01b600052604160045260246000fd5b60405161016081016001600160401b0381118282101715611ca157611ca1611c68565b60405290565b604051601f8201601f191681016001600160401b0381118282101715611ccf57611ccf611c68565b604052919050565b60006001600160401b03821115611cf057611cf0611c68565b50601f01601f191660200190565b600082601f830112611d0f57600080fd5b8135611d22611d1d82611cd7565b611ca7565b818152846020838601011115611d3757600080fd5b816020850160208301376000918101602001919091529392505050565b600080600080600080600080610100898b031215611d7157600080fd5b8835611d7c816119b6565b97506020890135611d8c816119b6565b9650611d9a60408a01611c45565b9550611da860608a01611c45565b94506080890135611db881611c59565b935060a08901359250611dcd60c08a01611c45565b915060e08901356001600160401b03811115611de857600080fd5b611df48b828c01611cfe565b9150509295985092959890939650565b60008060008060808587031215611e1a57600080fd5b8435611e25816119b6565b93506020850135611e35816119b6565b925060408501359150611e4a60608601611c45565b905092959194509250565b60008060008060008060c08789031215611e6e57600080fd5b8635611e79816119b6565b95506020870135611e89816119b6565b945060408701359350611e9e60608801611c45565b9250611eac60808801611c45565b915060a08701356001600160401b03811115611ec757600080fd5b611ed389828a01611cfe565b9150509295509295509295565b600080600080600080600060e0888a031215611efb57600080fd5b8735611f06816119b6565b96506020880135611f16816119b6565b955060408801359450611f2b60608901611c45565b9350611f3960808901611c45565b9250611f4760a08901611c45565b915060c08801356001600160401b03811115611f6257600080fd5b611f6e8a828b01611cfe565b91505092959891949750929550565b60008060008060808587031215611f9357600080fd5b8435611f9e816119b6565b93506020850135611fae816119b6565b9250611fbc60408601611c45565b915060608501356001600160401b03811115611fd757600080fd5b611fe387828801611cfe565b91505092959194509250565b60008060008060008060c0878903121561200857600080fd5b8635612013816119b6565b95506020870135612023816119b6565b94506040870135935061203860608801611c45565b925061204660808801611c45565b915061205460a08801611c45565b90509295509295509295565b600080600080600080600060e0888a03121561207b57600080fd5b8735612086816119b6565b96506020880135612096816119b6565b95506120a460408901611c45565b94506120b260608901611c45565b935060808801356120c281611c59565b925060a088013591506120d760c08901611c45565b905092959891949750929550565b600080600080600060a086880312156120fd57600080fd5b8535612108816119b6565b94506020860135612118816119b6565b93506040860135925061212d60608701611c45565b915061213b60808701611c45565b90509295509295909350565b60008060006060848603121561215c57600080fd5b8335612167816119b6565b92506020840135612177816119b6565b915060408401356001600160401b0381111561219257600080fd5b61219e86828701611cfe565b9150509250925092565b6bffffffffffffffffffffffff19606094851b8116825292841b83166014820152921b166028820152603c0190565b634e487b7160e01b600052601160045260246000fd5b63ffffffff82811682821603908082111561220a5761220a6121d7565b5092915050565b818103818111156118b9576118b96121d7565b80820281158282048414176118b9576118b96121d7565b808201808211156118b9576118b96121d7565b60006020828403121561226057600080fd5b8151801515811461227057600080fd5b9392505050565b6000806000806080858703121561228d57600080fd5b84519350602085015161229f81611c59565b6040860151606090960151949790965092505050565b63ffffffff81811683821601908082111561220a5761220a6121d7565b634e487b7160e01b600052601260045260246000fd5b6000826122f7576122f76122d2565b500490565b60008261230b5761230b6122d2565b500690565b634e487b7160e01b600052600160045260246000fd5b805160ff8116811461144057600080fd5b8051611440816119b6565b80516001600160e01b03198116811461144057600080fd5b600082601f83011261236b57600080fd5b8151612379611d1d82611cd7565b81815284602083860101111561238e57600080fd5b610c2e826020830160208701611ae0565b6000602082840312156123b157600080fd5b81516001600160401b03808211156123c857600080fd5b9083019061016082860312156123dd57600080fd5b6123e5611c7e565b6123ee83612326565b81526123fc60208401612326565b60208201526040830151604082015261241760608401612337565b606082015261242860808401612342565b608082015260a08301518281111561243f57600080fd5b61244b8782860161235a565b60a08301525060c083015160c082015260e083015160e0820152610100915081830151828201526101209150612482828401612337565b828201526101409150612496828401612337565b91810191909152949350505050565b6001600160a01b03858116825284811660208301528316604082015260806060820181905260009061177d90830184611b04565b6001600160a01b03841681526060602082018190526000906124fd90830185611b04565b828103604084015261177d8185611b04565b60006020828403121561252157600080fd5b81516001600160401b0381111561253757600080fd5b610c2e8482850161235a565b6001600160a01b038681168252858116602083015284166040820152600b83900b606082015260a06080820181905260009061092990830184611b0456fea2646970667358221220b6228427204186863f493c11755aaf0ff213ca4fa63722b02f29b96e08316af164736f6c63430008170033",
  "linkReferences": {},
  "deployedLinkReferences": {}
}