{
  "_format": "hh-sol-artifact-1",
  "contractName": "VestingSchedulerV2",
  "sourceName": "contracts/VestingSchedulerV2.sol",
  "abi": [
    {
      "inputs": [
        {
          "internalType": "contract ISuperfluid",
          "name": "host",
          "type": "address"
        }
      ],
      "stateMutability": "nonpayable",
      "type": "constructor"
    },
    {
      "inputs": [],
      "name": "AccountInvalid",
      "type": "error"
    },
    {
      "inputs": [],
      "name": "CannotClaimFlowOnBehalf",
      "type": "error"
    },
    {
      "inputs": [],
      "name": "CliffInvalid",
      "type": "error"
    },
    {
      "inputs": [],
      "name": "FlowRateInvalid",
      "type": "error"
    },
    {
      "inputs": [],
      "name": "HostInvalid",
      "type": "error"
    },
    {
      "inputs": [],
      "name": "ScheduleAlreadyExists",
      "type": "error"
    },
    {
      "inputs": [],
      "name": "ScheduleDoesNotExist",
      "type": "error"
    },
    {
      "inputs": [],
      "name": "ScheduleNotFlowing",
      "type": "error"
    },
    {
      "inputs": [],
      "name": "TimeWindowInvalid",
      "type": "error"
    },
    {
      "inputs": [],
      "name": "ZeroAddress",
      "type": "error"
    },
    {
      "anonymous": false,
      "inputs": [
        {
          "indexed": true,
          "internalType": "contract ISuperToken",
          "name": "superToken",
          "type": "address"
        },
        {
          "indexed": true,
          "internalType": "address",
          "name": "sender",
          "type": "address"
        },
        {
          "indexed": true,
          "internalType": "address",
          "name": "receiver",
          "type": "address"
        },
        {
          "indexed": false,
          "internalType": "uint32",
          "name": "cliffAndFlowDate",
          "type": "uint32"
        },
        {
          "indexed": false,
          "internalType": "int96",
          "name": "flowRate",
          "type": "int96"
        },
        {
          "indexed": false,
          "internalType": "uint256",
          "name": "cliffAmount",
          "type": "uint256"
        },
        {
          "indexed": false,
          "internalType": "uint256",
          "name": "flowDelayCompensation",
          "type": "uint256"
        }
      ],
      "name": "VestingCliffAndFlowExecuted",
      "type": "event"
    },
    {
      "anonymous": false,
      "inputs": [
        {
          "indexed": true,
          "internalType": "contract ISuperToken",
          "name": "superToken",
          "type": "address"
        },
        {
          "indexed": true,
          "internalType": "address",
          "name": "sender",
          "type": "address"
        },
        {
          "indexed": true,
          "internalType": "address",
          "name": "receiver",
          "type": "address"
        },
        {
          "indexed": false,
          "internalType": "uint32",
          "name": "endDate",
          "type": "uint32"
        },
        {
          "indexed": false,
          "internalType": "uint256",
          "name": "earlyEndCompensation",
          "type": "uint256"
        },
        {
          "indexed": false,
          "internalType": "bool",
          "name": "didCompensationFail",
          "type": "bool"
        }
      ],
      "name": "VestingEndExecuted",
      "type": "event"
    },
    {
      "anonymous": false,
      "inputs": [
        {
          "indexed": true,
          "internalType": "contract ISuperToken",
          "name": "superToken",
          "type": "address"
        },
        {
          "indexed": true,
          "internalType": "address",
          "name": "sender",
          "type": "address"
        },
        {
          "indexed": true,
          "internalType": "address",
          "name": "receiver",
          "type": "address"
        },
        {
          "indexed": false,
          "internalType": "uint32",
          "name": "endDate",
          "type": "uint32"
        }
      ],
      "name": "VestingEndFailed",
      "type": "event"
    },
    {
      "anonymous": false,
      "inputs": [
        {
          "indexed": true,
          "internalType": "contract ISuperToken",
          "name": "superToken",
          "type": "address"
        },
        {
          "indexed": true,
          "internalType": "address",
          "name": "sender",
          "type": "address"
        },
        {
          "indexed": true,
          "internalType": "address",
          "name": "receiver",
          "type": "address"
        },
        {
          "indexed": false,
          "internalType": "uint32",
          "name": "startDate",
          "type": "uint32"
        },
        {
          "indexed": false,
          "internalType": "uint32",
          "name": "claimValidityDate",
          "type": "uint32"
        },
        {
          "indexed": false,
          "internalType": "uint32",
          "name": "cliffDate",
          "type": "uint32"
        },
        {
          "indexed": false,
          "internalType": "int96",
          "name": "flowRate",
          "type": "int96"
        },
        {
          "indexed": false,
          "internalType": "uint32",
          "name": "endDate",
          "type": "uint32"
        },
        {
          "indexed": false,
          "internalType": "uint256",
          "name": "cliffAmount",
          "type": "uint256"
        },
        {
          "indexed": false,
          "internalType": "uint256",
          "name": "remainderAmount",
          "type": "uint256"
        }
      ],
      "name": "VestingScheduleCreated",
      "type": "event"
    },
    {
      "anonymous": false,
      "inputs": [
        {
          "indexed": true,
          "internalType": "contract ISuperToken",
          "name": "superToken",
          "type": "address"
        },
        {
          "indexed": true,
          "internalType": "address",
          "name": "sender",
          "type": "address"
        },
        {
          "indexed": true,
          "internalType": "address",
          "name": "receiver",
          "type": "address"
        }
      ],
      "name": "VestingScheduleDeleted",
      "type": "event"
    },
    {
      "anonymous": false,
      "inputs": [
        {
          "indexed": true,
          "internalType": "contract ISuperToken",
          "name": "superToken",
          "type": "address"
        },
        {
          "indexed": true,
          "internalType": "address",
          "name": "sender",
          "type": "address"
        },
        {
          "indexed": true,
          "internalType": "address",
          "name": "receiver",
          "type": "address"
        },
        {
          "indexed": false,
          "internalType": "uint32",
          "name": "oldEndDate",
          "type": "uint32"
        },
        {
          "indexed": false,
          "internalType": "uint32",
          "name": "endDate",
          "type": "uint32"
        }
      ],
      "name": "VestingScheduleUpdated",
      "type": "event"
    },
    {
      "inputs": [],
      "name": "END_DATE_VALID_BEFORE",
      "outputs": [
        {
          "internalType": "uint32",
          "name": "",
          "type": "uint32"
        }
      ],
      "stateMutability": "view",
      "type": "function"
    },
    {
      "inputs": [],
      "name": "MIN_VESTING_DURATION",
      "outputs": [
        {
          "internalType": "uint32",
          "name": "",
          "type": "uint32"
        }
      ],
      "stateMutability": "view",
      "type": "function"
    },
    {
      "inputs": [],
      "name": "START_DATE_VALID_AFTER",
      "outputs": [
        {
          "internalType": "uint32",
          "name": "",
          "type": "uint32"
        }
      ],
      "stateMutability": "view",
      "type": "function"
    },
    {
      "inputs": [
        {
          "internalType": "contract ISuperToken",
          "name": "",
          "type": "address"
        },
        {
          "internalType": "address",
          "name": "",
          "type": "address"
        },
        {
          "internalType": "bytes32",
          "name": "",
          "type": "bytes32"
        },
        {
          "internalType": "bytes",
          "name": "",
          "type": "bytes"
        },
        {
          "internalType": "bytes",
          "name": "",
          "type": "bytes"
        },
        {
          "internalType": "bytes",
          "name": "",
          "type": "bytes"
        }
      ],
      "name": "afterAgreementCreated",
      "outputs": [
        {
          "internalType": "bytes",
          "name": "",
          "type": "bytes"
        }
      ],
      "stateMutability": "nonpayable",
      "type": "function"
    },
    {
      "inputs": [
        {
          "internalType": "contract ISuperToken",
          "name": "",
          "type": "address"
        },
        {
          "internalType": "address",
          "name": "",
          "type": "address"
        },
        {
          "internalType": "bytes32",
          "name": "",
          "type": "bytes32"
        },
        {
          "internalType": "bytes",
          "name": "",
          "type": "bytes"
        },
        {
          "internalType": "bytes",
          "name": "",
          "type": "bytes"
        },
        {
          "internalType": "bytes",
          "name": "",
          "type": "bytes"
        }
      ],
      "name": "afterAgreementTerminated",
      "outputs": [
        {
          "internalType": "bytes",
          "name": "",
          "type": "bytes"
        }
      ],
      "stateMutability": "nonpayable",
      "type": "function"
    },
    {
      "inputs": [
        {
          "internalType": "contract ISuperToken",
          "name": "",
          "type": "address"
        },
        {
          "internalType": "address",
          "name": "",
          "type": "address"
        },
        {
          "internalType": "bytes32",
          "name": "",
          "type": "bytes32"
        },
        {
          "internalType": "bytes",
          "name": "",
          "type": "bytes"
        },
        {
          "internalType": "bytes",
          "name": "",
          "type": "bytes"
        },
        {
          "internalType": "bytes",
          "name": "",
          "type": "bytes"
        }
      ],
      "name": "afterAgreementUpdated",
      "outputs": [
        {
          "internalType": "bytes",
          "name": "",
          "type": "bytes"
        }
      ],
      "stateMutability": "nonpayable",
      "type": "function"
    },
    {
      "inputs": [
        {
          "internalType": "contract ISuperToken",
          "name": "",
          "type": "address"
        },
        {
          "internalType": "address",
          "name": "",
          "type": "address"
        },
        {
          "internalType": "bytes32",
          "name": "",
          "type": "bytes32"
        },
        {
          "internalType": "bytes",
          "name": "",
          "type": "bytes"
        },
        {
          "internalType": "bytes",
          "name": "",
          "type": "bytes"
        }
      ],
      "name": "beforeAgreementCreated",
      "outputs": [
        {
          "internalType": "bytes",
          "name": "",
          "type": "bytes"
        }
      ],
      "stateMutability": "view",
      "type": "function"
    },
    {
      "inputs": [
        {
          "internalType": "contract ISuperToken",
          "name": "",
          "type": "address"
        },
        {
          "internalType": "address",
          "name": "",
          "type": "address"
        },
        {
          "internalType": "bytes32",
          "name": "",
          "type": "bytes32"
        },
        {
          "internalType": "bytes",
          "name": "",
          "type": "bytes"
        },
        {
          "internalType": "bytes",
          "name": "",
          "type": "bytes"
        }
      ],
      "name": "beforeAgreementTerminated",
      "outputs": [
        {
          "internalType": "bytes",
          "name": "",
          "type": "bytes"
        }
      ],
      "stateMutability": "view",
      "type": "function"
    },
    {
      "inputs": [
        {
          "internalType": "contract ISuperToken",
          "name": "",
          "type": "address"
        },
        {
          "internalType": "address",
          "name": "",
          "type": "address"
        },
        {
          "internalType": "bytes32",
          "name": "",
          "type": "bytes32"
        },
        {
          "internalType": "bytes",
          "name": "",
          "type": "bytes"
        },
        {
          "internalType": "bytes",
          "name": "",
          "type": "bytes"
        }
      ],
      "name": "beforeAgreementUpdated",
      "outputs": [
        {
          "internalType": "bytes",
          "name": "",
          "type": "bytes"
        }
      ],
      "stateMutability": "view",
      "type": "function"
    },
    {
      "inputs": [],
      "name": "cfaV1",
      "outputs": [
        {
          "internalType": "contract ISuperfluid",
          "name": "host",
          "type": "address"
        },
        {
          "internalType": "contract IConstantFlowAgreementV1",
          "name": "cfa",
          "type": "address"
        }
      ],
      "stateMutability": "view",
      "type": "function"
    },
    {
      "inputs": [
        {
          "internalType": "contract ISuperToken",
          "name": "superToken",
          "type": "address"
        },
        {
          "internalType": "address",
          "name": "receiver",
          "type": "address"
        },
        {
          "internalType": "uint256",
          "name": "totalAmount",
          "type": "uint256"
        },
        {
          "internalType": "uint32",
          "name": "totalDuration",
          "type": "uint32"
        },
        {
          "internalType": "bytes",
          "name": "ctx",
          "type": "bytes"
        }
      ],
      "name": "createAndExecuteVestingScheduleFromAmountAndDuration",
      "outputs": [
        {
          "internalType": "bytes",
          "name": "newCtx",
          "type": "bytes"
        }
      ],
      "stateMutability": "nonpayable",
      "type": "function"
    },
    {
      "inputs": [
        {
          "internalType": "contract ISuperToken",
          "name": "superToken",
          "type": "address"
        },
        {
          "internalType": "address",
          "name": "receiver",
          "type": "address"
        },
        {
          "internalType": "uint256",
          "name": "totalAmount",
          "type": "uint256"
        },
        {
          "internalType": "uint32",
          "name": "totalDuration",
          "type": "uint32"
        }
      ],
      "name": "createAndExecuteVestingScheduleFromAmountAndDuration",
      "outputs": [],
      "stateMutability": "nonpayable",
      "type": "function"
    },
    {
      "inputs": [
        {
          "internalType": "contract ISuperToken",
          "name": "superToken",
          "type": "address"
        },
        {
          "internalType": "address",
          "name": "receiver",
          "type": "address"
        },
        {
          "internalType": "uint32",
          "name": "startDate",
          "type": "uint32"
        },
        {
          "internalType": "uint32",
          "name": "claimValidityDate",
          "type": "uint32"
        },
        {
          "internalType": "uint32",
          "name": "cliffDate",
          "type": "uint32"
        },
        {
          "internalType": "int96",
          "name": "flowRate",
          "type": "int96"
        },
        {
          "internalType": "uint256",
          "name": "cliffAmount",
          "type": "uint256"
        },
        {
          "internalType": "uint32",
          "name": "endDate",
          "type": "uint32"
        },
        {
          "internalType": "bytes",
          "name": "ctx",
          "type": "bytes"
        }
      ],
      "name": "createClaimableVestingSchedule",
      "outputs": [
        {
          "internalType": "bytes",
          "name": "newCtx",
          "type": "bytes"
        }
      ],
      "stateMutability": "nonpayable",
      "type": "function"
    },
    {
      "inputs": [
        {
          "internalType": "contract ISuperToken",
          "name": "superToken",
          "type": "address"
        },
        {
          "internalType": "address",
          "name": "receiver",
          "type": "address"
        },
        {
          "internalType": "uint32",
          "name": "startDate",
          "type": "uint32"
        },
        {
          "internalType": "uint32",
          "name": "claimValidityDate",
          "type": "uint32"
        },
        {
          "internalType": "uint32",
          "name": "cliffDate",
          "type": "uint32"
        },
        {
          "internalType": "int96",
          "name": "flowRate",
          "type": "int96"
        },
        {
          "internalType": "uint256",
          "name": "cliffAmount",
          "type": "uint256"
        },
        {
          "internalType": "uint32",
          "name": "endDate",
          "type": "uint32"
        }
      ],
      "name": "createClaimableVestingSchedule",
      "outputs": [],
      "stateMutability": "nonpayable",
      "type": "function"
    },
    {
      "inputs": [
        {
          "internalType": "contract ISuperToken",
          "name": "superToken",
          "type": "address"
        },
        {
          "internalType": "address",
          "name": "receiver",
          "type": "address"
        },
        {
          "internalType": "uint256",
          "name": "totalAmount",
          "type": "uint256"
        },
        {
          "internalType": "uint32",
          "name": "totalDuration",
          "type": "uint32"
        },
        {
          "internalType": "uint32",
          "name": "claimValidityDate",
          "type": "uint32"
        },
        {
          "internalType": "uint32",
          "name": "cliffPeriod",
          "type": "uint32"
        }
      ],
      "name": "createClaimableVestingScheduleFromAmountAndDuration",
      "outputs": [],
      "stateMutability": "nonpayable",
      "type": "function"
    },
    {
      "inputs": [
        {
          "internalType": "contract ISuperToken",
          "name": "superToken",
          "type": "address"
        },
        {
          "internalType": "address",
          "name": "receiver",
          "type": "address"
        },
        {
          "internalType": "uint256",
          "name": "totalAmount",
          "type": "uint256"
        },
        {
          "internalType": "uint32",
          "name": "totalDuration",
          "type": "uint32"
        },
        {
          "internalType": "uint32",
          "name": "claimValidityDate",
          "type": "uint32"
        },
        {
          "internalType": "uint32",
          "name": "cliffPeriod",
          "type": "uint32"
        },
        {
          "internalType": "uint32",
          "name": "startDate",
          "type": "uint32"
        }
      ],
      "name": "createClaimableVestingScheduleFromAmountAndDuration",
      "outputs": [],
      "stateMutability": "nonpayable",
      "type": "function"
    },
    {
      "inputs": [
        {
          "internalType": "contract ISuperToken",
          "name": "superToken",
          "type": "address"
        },
        {
          "internalType": "address",
          "name": "receiver",
          "type": "address"
        },
        {
          "internalType": "uint256",
          "name": "totalAmount",
          "type": "uint256"
        },
        {
          "internalType": "uint32",
          "name": "totalDuration",
          "type": "uint32"
        },
        {
          "internalType": "uint32",
          "name": "claimValidityDate",
          "type": "uint32"
        }
      ],
      "name": "createClaimableVestingScheduleFromAmountAndDuration",
      "outputs": [],
      "stateMutability": "nonpayable",
      "type": "function"
    },
    {
      "inputs": [
        {
          "internalType": "contract ISuperToken",
          "name": "superToken",
          "type": "address"
        },
        {
          "internalType": "address",
          "name": "receiver",
          "type": "address"
        },
        {
          "internalType": "uint256",
          "name": "totalAmount",
          "type": "uint256"
        },
        {
          "internalType": "uint32",
          "name": "totalDuration",
          "type": "uint32"
        },
        {
          "internalType": "uint32",
          "name": "claimValidityDate",
          "type": "uint32"
        },
        {
          "internalType": "uint32",
          "name": "cliffPeriod",
          "type": "uint32"
        },
        {
          "internalType": "uint32",
          "name": "startDate",
          "type": "uint32"
        },
        {
          "internalType": "bytes",
          "name": "ctx",
          "type": "bytes"
        }
      ],
      "name": "createClaimableVestingScheduleFromAmountAndDuration",
      "outputs": [
        {
          "internalType": "bytes",
          "name": "newCtx",
          "type": "bytes"
        }
      ],
      "stateMutability": "nonpayable",
      "type": "function"
    },
    {
      "inputs": [
        {
          "internalType": "contract ISuperToken",
          "name": "superToken",
          "type": "address"
        },
        {
          "internalType": "address",
          "name": "receiver",
          "type": "address"
        },
        {
          "internalType": "uint32",
          "name": "startDate",
          "type": "uint32"
        },
        {
          "internalType": "uint32",
          "name": "cliffDate",
          "type": "uint32"
        },
        {
          "internalType": "int96",
          "name": "flowRate",
          "type": "int96"
        },
        {
          "internalType": "uint256",
          "name": "cliffAmount",
          "type": "uint256"
        },
        {
          "internalType": "uint32",
          "name": "endDate",
          "type": "uint32"
        },
        {
          "internalType": "bytes",
          "name": "ctx",
          "type": "bytes"
        }
      ],
      "name": "createVestingSchedule",
      "outputs": [
        {
          "internalType": "bytes",
          "name": "newCtx",
          "type": "bytes"
        }
      ],
      "stateMutability": "nonpayable",
      "type": "function"
    },
    {
      "inputs": [
        {
          "internalType": "contract ISuperToken",
          "name": "superToken",
          "type": "address"
        },
        {
          "internalType": "address",
          "name": "receiver",
          "type": "address"
        },
        {
          "internalType": "uint32",
          "name": "startDate",
          "type": "uint32"
        },
        {
          "internalType": "uint32",
          "name": "cliffDate",
          "type": "uint32"
        },
        {
          "internalType": "int96",
          "name": "flowRate",
          "type": "int96"
        },
        {
          "internalType": "uint256",
          "name": "cliffAmount",
          "type": "uint256"
        },
        {
          "internalType": "uint32",
          "name": "endDate",
          "type": "uint32"
        }
      ],
      "name": "createVestingSchedule",
      "outputs": [],
      "stateMutability": "nonpayable",
      "type": "function"
    },
    {
      "inputs": [
        {
          "internalType": "contract ISuperToken",
          "name": "superToken",
          "type": "address"
        },
        {
          "internalType": "address",
          "name": "receiver",
          "type": "address"
        },
        {
          "internalType": "uint256",
          "name": "totalAmount",
          "type": "uint256"
        },
        {
          "internalType": "uint32",
          "name": "totalDuration",
          "type": "uint32"
        }
      ],
      "name": "createVestingScheduleFromAmountAndDuration",
      "outputs": [],
      "stateMutability": "nonpayable",
      "type": "function"
    },
    {
      "inputs": [
        {
          "internalType": "contract ISuperToken",
          "name": "superToken",
          "type": "address"
        },
        {
          "internalType": "address",
          "name": "receiver",
          "type": "address"
        },
        {
          "internalType": "uint256",
          "name": "totalAmount",
          "type": "uint256"
        },
        {
          "internalType": "uint32",
          "name": "totalDuration",
          "type": "uint32"
        },
        {
          "internalType": "uint32",
          "name": "cliffPeriod",
          "type": "uint32"
        },
        {
          "internalType": "uint32",
          "name": "startDate",
          "type": "uint32"
        },
        {
          "internalType": "bytes",
          "name": "ctx",
          "type": "bytes"
        }
      ],
      "name": "createVestingScheduleFromAmountAndDuration",
      "outputs": [
        {
          "internalType": "bytes",
          "name": "newCtx",
          "type": "bytes"
        }
      ],
      "stateMutability": "nonpayable",
      "type": "function"
    },
    {
      "inputs": [
        {
          "internalType": "contract ISuperToken",
          "name": "superToken",
          "type": "address"
        },
        {
          "internalType": "address",
          "name": "receiver",
          "type": "address"
        },
        {
          "internalType": "uint256",
          "name": "totalAmount",
          "type": "uint256"
        },
        {
          "internalType": "uint32",
          "name": "totalDuration",
          "type": "uint32"
        },
        {
          "internalType": "uint32",
          "name": "cliffPeriod",
          "type": "uint32"
        },
        {
          "internalType": "uint32",
          "name": "startDate",
          "type": "uint32"
        }
      ],
      "name": "createVestingScheduleFromAmountAndDuration",
      "outputs": [],
      "stateMutability": "nonpayable",
      "type": "function"
    },
    {
      "inputs": [
        {
          "internalType": "contract ISuperToken",
          "name": "superToken",
          "type": "address"
        },
        {
          "internalType": "address",
          "name": "receiver",
          "type": "address"
        },
        {
          "internalType": "uint256",
          "name": "totalAmount",
          "type": "uint256"
        },
        {
          "internalType": "uint32",
          "name": "totalDuration",
          "type": "uint32"
        },
        {
          "internalType": "uint32",
          "name": "cliffPeriod",
          "type": "uint32"
        }
      ],
      "name": "createVestingScheduleFromAmountAndDuration",
      "outputs": [],
      "stateMutability": "nonpayable",
      "type": "function"
    },
    {
      "inputs": [
        {
          "internalType": "contract ISuperToken",
          "name": "superToken",
          "type": "address"
        },
        {
          "internalType": "address",
          "name": "receiver",
          "type": "address"
        },
        {
          "internalType": "bytes",
          "name": "ctx",
          "type": "bytes"
        }
      ],
      "name": "deleteVestingSchedule",
      "outputs": [
        {
          "internalType": "bytes",
          "name": "newCtx",
          "type": "bytes"
        }
      ],
      "stateMutability": "nonpayable",
      "type": "function"
    },
    {
      "inputs": [
        {
          "internalType": "contract ISuperToken",
          "name": "superToken",
          "type": "address"
        },
        {
          "internalType": "address",
          "name": "sender",
          "type": "address"
        },
        {
          "internalType": "address",
          "name": "receiver",
          "type": "address"
        }
      ],
      "name": "executeCliffAndFlow",
      "outputs": [
        {
          "internalType": "bool",
          "name": "success",
          "type": "bool"
        }
      ],
      "stateMutability": "nonpayable",
      "type": "function"
    },
    {
      "inputs": [
        {
          "internalType": "contract ISuperToken",
          "name": "superToken",
          "type": "address"
        },
        {
          "internalType": "address",
          "name": "sender",
          "type": "address"
        },
        {
          "internalType": "address",
          "name": "receiver",
          "type": "address"
        }
      ],
      "name": "executeEndVesting",
      "outputs": [
        {
          "internalType": "bool",
          "name": "success",
          "type": "bool"
        }
      ],
      "stateMutability": "nonpayable",
      "type": "function"
    },
    {
      "inputs": [
        {
          "internalType": "address",
          "name": "supertoken",
          "type": "address"
        },
        {
          "internalType": "address",
          "name": "sender",
          "type": "address"
        },
        {
          "internalType": "address",
          "name": "receiver",
          "type": "address"
        }
      ],
      "name": "getVestingSchedule",
      "outputs": [
        {
          "components": [
            {
              "internalType": "uint32",
              "name": "cliffAndFlowDate",
              "type": "uint32"
            },
            {
              "internalType": "uint32",
              "name": "endDate",
              "type": "uint32"
            },
            {
              "internalType": "uint32",
              "name": "claimValidityDate",
              "type": "uint32"
            },
            {
              "internalType": "int96",
              "name": "flowRate",
              "type": "int96"
            },
            {
              "internalType": "uint256",
              "name": "cliffAmount",
              "type": "uint256"
            },
            {
              "internalType": "uint256",
              "name": "remainderAmount",
              "type": "uint256"
            }
          ],
          "internalType": "struct IVestingSchedulerV2.VestingSchedule",
          "name": "",
          "type": "tuple"
        }
      ],
      "stateMutability": "view",
      "type": "function"
    },
    {
      "inputs": [
        {
          "internalType": "contract ISuperToken",
          "name": "superToken",
          "type": "address"
        },
        {
          "internalType": "address",
          "name": "receiver",
          "type": "address"
        },
        {
          "internalType": "uint32",
          "name": "endDate",
          "type": "uint32"
        },
        {
          "internalType": "bytes",
          "name": "ctx",
          "type": "bytes"
        }
      ],
      "name": "updateVestingSchedule",
      "outputs": [
        {
          "internalType": "bytes",
          "name": "newCtx",
          "type": "bytes"
        }
      ],
      "stateMutability": "nonpayable",
      "type": "function"
    },
    {
      "inputs": [
        {
          "internalType": "bytes32",
          "name": "",
          "type": "bytes32"
        }
      ],
      "name": "vestingSchedules",
      "outputs": [
        {
          "internalType": "uint32",
          "name": "cliffAndFlowDate",
          "type": "uint32"
        },
        {
          "internalType": "uint32",
          "name": "endDate",
          "type": "uint32"
        },
        {
          "internalType": "uint32",
          "name": "claimValidityDate",
          "type": "uint32"
        },
        {
          "internalType": "int96",
          "name": "flowRate",
          "type": "int96"
        },
        {
          "internalType": "uint256",
          "name": "cliffAmount",
          "type": "uint256"
        },
        {
          "internalType": "uint256",
          "name": "remainderAmount",
          "type": "uint256"
        }
      ],
      "stateMutability": "view",
      "type": "function"
    }
  ],
  "bytecode": "0x60806040523480156200001157600080fd5b506040516200364938038062003649833981016040819052620000349162000187565b6040805180820182526001600160a01b0383168082529151635b69006f60e11b81527fa9214cc96615e0085d3bb077758db69497dc2dce3b2b1e97bc93c3d18d83efd360048201529091602083019163b6d200de90602401602060405180830381865afa158015620000aa573d6000803e3d6000fd5b505050506040513d601f19601f82011682018060405250810190620000d0919062000187565b6001600160a01b039081169091528151600080549183166001600160a01b03199283161790556020909201516001805491831691909316179091556040516315a722b960e31b8152643f00000001600482018190529183169063ad3915c890602401600060405180830381600087803b1580156200014d57600080fd5b505af115801562000162573d6000803e3d6000fd5b505050505050620001ae565b6001600160a01b03811681146200018457600080fd5b50565b6000602082840312156200019a57600080fd5b8151620001a7816200016e565b9392505050565b61348b80620001be6000396000f3fe608060405234801561001057600080fd5b50600436106101da5760003560e01c806383cca62a11610104578063bc5b6eeb116100a2578063f67b5c7e11610071578063f67b5c7e146104fe578063f6d7e2ab14610508578063fd2b3d361461051b578063ff2762be1461052e57600080fd5b8063bc5b6eeb1461048b578063d3112b2e1461049e578063d86ed3e5146104d8578063dd58ca6e146104eb57600080fd5b80639223d9c1116100de5780639223d9c11461043f57806396bc3257146104525780639c4e89ba14610465578063ac42347a1461047857600080fd5b806383cca62a146103ab578063884d1f40146103be57806389a1976f146103d157600080fd5b80635f9e7d771161017c5780637775968f1161014b5780637775968f1461035f5780637af9ae8a146103725780638037003114610385578063835942d71461039857600080fd5b80635f9e7d771461027f578063604178871461029257806371de407e146103295780637648e9651461034c57600080fd5b80633011071e116101b85780633011071e1461023c57806330d9c9151461024657806341d56cb41461025957806353c11f991461026c57600080fd5b806305816000146101df578063230dbd29146101f45780632719e0101461021d575b600080fd5b6101f26101ed36600461269e565b610541565b005b610207610202366004612757565b61068d565b6040516102149190612871565b60405180910390f35b6102276203f48081565b60405163ffffffff9091168152602001610214565b61022762093a8081565b610207610254366004612884565b6106f4565b6101f2610267366004612922565b610757565b61020761027a366004612757565b610763565b61020761028d366004612884565b6107c8565b6102eb6102a03660046129a5565b600260208190526000918252604090912080546001820154919092015463ffffffff80841693600160201b8104821693600160401b820490921692600160601b909104600b0b919086565b6040805163ffffffff978816815295871660208701529390951692840192909252600b0b6060830152608082015260a081019190915260c001610214565b61033c6103373660046129be565b61082f565b6040519015158152602001610214565b61020761035a366004612b04565b610b26565b61020761036d366004612bb4565b610bb2565b6101f2610380366004612c75565b610cec565b610207610393366004612cc6565b610d71565b6102076103a6366004612d63565b610dec565b6101f26103b936600461269e565b610f84565b6102076103cc366004612884565b611009565b6103e46103df3660046129be565b61106c565b6040516102149190600060c08201905063ffffffff808451168352806020850151166020840152806040850151166040840152506060830151600b0b60608301526080830151608083015260a083015160a083015292915050565b61033c61044d3660046129be565b61113e565b6101f2610460366004612dd5565b611153565b6101f2610473366004612e4c565b6111e9565b610207610486366004612eae565b61126e565b610207610499366004612f0f565b611359565b6000546001546104b8916001600160a01b03908116911682565b604080516001600160a01b03938416815292909116602083015201610214565b6102076104e6366004612757565b611372565b6101f26104f9366004612c75565b6113d4565b6102276201518081565b6101f2610516366004612e4c565b6113f0565b610207610529366004612f8b565b611510565b6101f261053c366004613002565b611642565b42600061054e85836130ae565b90506201518063ffffffff82161161057957604051633a230cd960e01b815260040160405180910390fd5b63ffffffff841615806105a3575061059462015180826130d2565b63ffffffff168463ffffffff16115b156105b8576105b562015180826130d2565b93505b600063ffffffff8416156105d5576105d084846130ae565b6105d7565b825b90508063ffffffff168563ffffffff16101561060657604051633a230cd960e01b815260040160405180910390fd5b6106816040518061010001604052808b6001600160a01b031681526020018a6001600160a01b031681526020018981526020018863ffffffff1681526020018663ffffffff1681526020018563ffffffff1681526020018763ffffffff1681526020016040518060200160405280600081525081525061177a565b50505050505050505050565b60405162461bcd60e51b815260206004820152602e60248201527f556e737570706f727465642063616c6c6261636b202d2041667465722041677260448201526d19595b595b9d08155c19185d195960921b60648201526060906084015b60405180910390fd5b60405162461bcd60e51b815260206004820152602f60248201527f556e737570706f727465642063616c6c6261636b202d204265666f726520416760448201526e1c99595b595b9d0810dc99585d1959608a1b60648201526060906084016106eb565b600061054e85836130ae565b60405162461bcd60e51b815260206004820152603160248201527f556e737570706f727465642063616c6c6261636b202d2041667465722041677260448201527019595b595b9d0815195c9b5a5b985d1959607a1b60648201526060906084016106eb565b60405162461bcd60e51b815260206004820152603360248201527f556e737570706f727465642063616c6c6261636b202d20204265666f7265204160448201527219dc99595b595b9d0815195c9b5a5b985d1959606a1b60648201526060906084016106eb565b600080848484604051602001610847939291906130ef565b60408051601f198184030181528282528051602091820120600081815260028084529084902060c086018552805463ffffffff8082168852600160201b82048116958801869052600160401b82041695870195909552600160601b909404600b0b606086015260018401546080860152929092015460a084015290925042906108d49062015180906130d2565b63ffffffff1611156108f957604051633a230cd960e01b815260040160405180910390fd5b6000828152600260208190526040822080546001600160c01b031916815560018101839055015561092b868686611996565b15610ab45761093d6000868689611a29565b50600042826020015163ffffffff161015610959576000610996565b8160a0015182606001516001600160601b031642846020015163ffffffff16610982919061311e565b61098c9190613131565b6109969190613148565b60208301519091504263ffffffff909116108115610a35576040516323b872dd60e01b81526001600160a01b0388811660048301528781166024830152604482018490528916906323b872dd906064016020604051808303816000875af1158015610a05573d6000803e3d6000fd5b505050506040513d601f19601f82011682018060405250810190610a29919061315b565b610a3557610a35613184565b856001600160a01b0316876001600160a01b0316896001600160a01b03167f18c0f95c8f947c789fc5b704b2f1299671614639c64bf6af260bd210bc184ba286602001518686604051610aa59392919063ffffffff93909316835260208301919091521515604082015260600190565b60405180910390a45050610b1a565b836001600160a01b0316856001600160a01b0316876001600160a01b03167fcb5ed4b0fc620b552fbd3a82d5fb0f9a57eb30a7ef218f4a4974b871f648f6e88460200151604051610b11919063ffffffff91909116815260200190565b60405180910390a45b50600195945050505050565b6060610ba56040518061014001604052808b6001600160a01b031681526020018a6001600160a01b031681526020018963ffffffff168152602001600063ffffffff1681526020018863ffffffff16815260200187600b0b81526020018681526020018563ffffffff1681526020016000815260200184815250611a55565b9998505050505050505050565b60606201518063ffffffff841611610bdd57604051633a230cd960e01b815260040160405180910390fd5b63ffffffff87161580610c075750610bf862015180846130d2565b63ffffffff168763ffffffff16115b15610c1c57610c1962015180846130d2565b96505b600063ffffffff871615610c305786610c32565b885b90508063ffffffff168863ffffffff161015610c6157604051633a230cd960e01b815260040160405180910390fd5b610cdd6040518061014001604052808d6001600160a01b031681526020018c6001600160a01b031681526020018b63ffffffff1681526020018a63ffffffff1681526020018963ffffffff16815260200188600b0b81526020018781526020018663ffffffff1681526020016000815260200185815250611a55565b9b9a5050505050505050505050565b610d6a604051806101000160405280866001600160a01b03168152602001856001600160a01b031681526020018481526020018363ffffffff168152602001600063ffffffff168152602001600063ffffffff168152602001600063ffffffff1681526020016040518060200160405280600081525081525061177a565b5050505050565b6060610de06040518061010001604052808a6001600160a01b03168152602001896001600160a01b031681526020018881526020018763ffffffff1681526020018663ffffffff1681526020018563ffffffff168152602001600063ffffffff1681526020018481525061177a565b98975050505050505050565b806000610df882611ef6565b90506000868287604051602001610e11939291906130ef565b60408051601f198184030181528282528051602091820120600081815260028084529084902060c086018552805463ffffffff8082168852600160201b8204811695880195909552600160401b8104851695870195909552600160601b909404600b0b606086015260018401546080860152929092015460a08401529092504290871611610eb257604051633a230cd960e01b815260040160405180910390fd5b805163ffffffff16151580610ecf5750602081015163ffffffff16155b15610eed5760405163e23d21e760e01b815260040160405180910390fd5b6000828152600260208181526040808420805467ffffffff000000001916600160201b63ffffffff8d8116918202929092178355919094019490945584820151815193168352908201929092526001600160a01b038981169286821692918c16917f5656285dd3a31235e7b67252cd44c997ee7a3d1b7656497c444212a7caa30c3e910160405180910390a4505050949350505050565b611000604051806101000160405280886001600160a01b03168152602001876001600160a01b031681526020018681526020018563ffffffff1681526020018463ffffffff1681526020018363ffffffff168152602001600063ffffffff1681526020016040518060200160405280600081525081525061177a565b50505050505050565b60405162461bcd60e51b815260206004820152602f60248201527f556e737570706f727465642063616c6c6261636b202d204265666f726520416760448201526e1c99595b595b9d081d5c19185d1959608a1b60648201526060906084016106eb565b6040805160c081018252600080825260208201819052918101829052606081018290526080810182905260a0810191909152600260008585856040516020016110b7939291906130ef565b60408051808303601f190181529181528151602092830120835282820193909352908201600020825160c081018452815463ffffffff8082168352600160201b8204811694830194909452600160401b810490931693810193909352600160601b909104600b0b6060830152600181015460808301526002015460a0820152949350505050565b600061114b848484611fca565b949350505050565b6111df604051806101400160405280896001600160a01b03168152602001886001600160a01b031681526020018763ffffffff168152602001600063ffffffff1681526020018663ffffffff16815260200185600b0b81526020018481526020018363ffffffff1681526020016000815260200160405180602001604052806000815250815250611a55565b5050505050505050565b611266604051806101000160405280876001600160a01b03168152602001866001600160a01b031681526020018581526020018463ffffffff1681526020018363ffffffff168152602001600063ffffffff168152602001600063ffffffff1681526020016040518060200160405280600081525081525061177a565b505050505050565b80600061127a82611ef6565b90506000858286604051602001611293939291906130ef565b60408051808303601f19018152918152815160209283012060008181526002909352912054909150600160201b900463ffffffff161561133757600081815260026020819052604080832080546001600160c01b031916815560018101849055909101829055516001600160a01b038088169285821692918a16917fffdbd3e70c7da1df271588aaf77ca99625058da916f9d29cdc13d6f8e4f900ab9190a4611350565b6040516319cfbfcd60e11b815260040160405180910390fd5b50509392505050565b606061136886868686866122bc565b9695505050505050565b60405162461bcd60e51b815260206004820152602e60248201527f556e737570706f727465642063616c6c6261636b202d2041667465722041677260448201526d19595b595b9d0810dc99585d195960921b60648201526060906084016106eb565b610d6a84848484604051806020016040528060008152506122bc565b4260006113fd84836130ae565b90506201518063ffffffff82161161142857604051633a230cd960e01b815260040160405180910390fd5b63ffffffff83161580611452575061144362015180826130d2565b63ffffffff168363ffffffff16115b156114675761146462015180826130d2565b92505b8163ffffffff168363ffffffff16101561149457604051633a230cd960e01b815260040160405180910390fd5b6111df604051806101000160405280896001600160a01b03168152602001886001600160a01b031681526020018781526020018663ffffffff168152602001600063ffffffff1681526020018463ffffffff1681526020018563ffffffff1681526020016040518060200160405280600081525081525061177a565b6060600061151e87856130ae565b90506201518063ffffffff82161161154957604051633a230cd960e01b815260040160405180910390fd5b63ffffffff86161580611573575061156462015180826130d2565b63ffffffff168663ffffffff16115b156115885761158562015180826130d2565b95505b600063ffffffff8616156115a5576115a086866130ae565b6115a7565b845b90508063ffffffff168763ffffffff1610156115d657604051633a230cd960e01b815260040160405180910390fd5b610cdd6040518061010001604052808d6001600160a01b031681526020018c6001600160a01b031681526020018b81526020018a63ffffffff1681526020018863ffffffff1681526020018763ffffffff1681526020018963ffffffff1681526020018681525061177a565b6201518063ffffffff82161161166b57604051633a230cd960e01b815260040160405180910390fd5b63ffffffff85161580611695575061168662015180826130d2565b63ffffffff168563ffffffff16115b156116aa576116a762015180826130d2565b94505b600063ffffffff8516156116be57846116c0565b865b90508063ffffffff168663ffffffff1610156116ef57604051633a230cd960e01b815260040160405180910390fd5b6106816040518061014001604052808b6001600160a01b031681526020018a6001600160a01b031681526020018963ffffffff1681526020018863ffffffff1681526020018763ffffffff16815260200186600b0b81526020018581526020018463ffffffff1681526020016000815260200160405180602001604052806000815250815250611a55565b60608160a0015163ffffffff1660000361179b5763ffffffff421660a08301525b600082606001518360a001516117b191906130ae565b905060006117df6117da856060015163ffffffff1686604001516117d5919061319a565b61235d565b6123cb565b90506000846060015163ffffffff166117fa83600b0b61242e565b6118049190613131565b8560400151611813919061311e565b9050846080015163ffffffff166000036118bf576118b860405180610140016040528087600001516001600160a01b0316815260200187602001516001600160a01b031681526020018760a0015163ffffffff1681526020018760c0015163ffffffff168152602001600063ffffffff16815260200184600b0b8152602001600081526020018563ffffffff1681526020018381526020018760e00151815250611a55565b935061198e565b600085608001518660a001516118d591906130ae565b905060006118f8876080015163ffffffff166118f386600b0b61242e565b612480565b905061198960405180610140016040528089600001516001600160a01b0316815260200189602001516001600160a01b031681526020018960a0015163ffffffff1681526020018960c0015163ffffffff1681526020018463ffffffff16815260200186600b0b81526020018381526020018763ffffffff1681526020018581526020018960e00151815250611a55565b955050505b505050919050565b600154604051631cd43d1160e31b81526001600160a01b03858116600483015284811660248301528381166044830152600092839291169063e6a1e88890606401608060405180830381865afa1580156119f4573d6000803e3d6000fd5b505050506040513d601f19601f82011682018060405250810190611a1891906131bc565b5050600b0b15159695505050505050565b604080516000815260208101909152606090611a4c908690869086908690612495565b95945050505050565b6101208101516000611a6682611ef6565b9050826040015163ffffffff16600003611a875763ffffffff421660408401525b42836040015163ffffffff161015611ab257604051633a230cd960e01b815260040160405180910390fd5b60208301516001600160a01b03161580611ae15750806001600160a01b031683602001516001600160a01b0316145b15611aff5760405163a9c6791d60e01b815260040160405180910390fd5b82516001600160a01b0316611b275760405163d92e233d60e01b815260040160405180910390fd5b60008360a00151600b0b13611b4f576040516308bea1af60e41b815260040160405180910390fd5b608083015163ffffffff1615801590611b7b5750826080015163ffffffff16836040015163ffffffff16115b15611b9957604051633a230cd960e01b815260040160405180910390fd5b608083015163ffffffff16158015611bb4575060c083015115155b15611bd257604051635357da6360e01b815260040160405180910390fd5b6000836080015163ffffffff16600014611bf0578360800151611bf6565b83604001515b9050428163ffffffff161080611c1c57508360e0015163ffffffff168163ffffffff1610155b80611c515750620151808460e00151611c3591906130d2565b63ffffffff16611c486203f480836130ae565b63ffffffff1610155b80611c74575060e084015162093a8090611c6c9083906130d2565b63ffffffff16105b15611c9257604051633a230cd960e01b815260040160405180910390fd5b60008460000151838660200151604051602001611cb1939291906130ef565b60408051808303601f19018152918152815160209283012060008181526002909352912054909150600160201b900463ffffffff1615611d045760405163e109c26360e01b815260040160405180910390fd5b6040518060c001604052808363ffffffff1681526020018660e0015163ffffffff168152602001866060015163ffffffff1681526020018660a00151600b0b81526020018660c0015181526020018661010001518152506002600083815260200190815260200160002060008201518160000160006101000a81548163ffffffff021916908363ffffffff16021790555060208201518160000160046101000a81548163ffffffff021916908363ffffffff16021790555060408201518160000160086101000a81548163ffffffff021916908363ffffffff160217905550606082015181600001600c6101000a8154816001600160601b030219169083600b0b6001600160601b031602179055506080820151816001015560a0820151816002015590505084602001516001600160a01b0316836001600160a01b031686600001516001600160a01b03167f077d7f2d974469da6ae2f9c24012726b1bcb79160e7d8e3cff764fbf446ff19e886040015189606001518a608001518b60a001518c60e001518d60c001518e6101000151604051611ee6979695949392919063ffffffff978816815295871660208701529386166040860152600b9290920b6060850152909316608083015260a082019290925260c081019190915260e00190565b60405180910390a4505050919050565b60008151600014611fac576000546001600160a01b03163314611f2c57604051632772d7f360e21b815260040160405180910390fd5b600054604051631fb6491d60e11b81526001600160a01b0390911690633f6c923a90611f5c908590600401612871565b600060405180830381865afa158015611f79573d6000803e3d6000fd5b505050506040513d6000823e601f3d908101601f19168201604052611fa19190810190613273565b606001519050611faf565b50335b6001600160a01b038116611fc557611fc5613184565b919050565b600080848484604051602001611fe2939291906130ef565b60408051601f1981840301815282825280516020918201206000818152600280845284822060c087018652805463ffffffff8082168952600160201b8204811696890196909652600160401b8104909516958701869052600160601b909404600b0b606087015260018401546080870152929092015460a0850152935090612079578151612074906203f480906130ae565b61207f565b81604001515b604083015190915063ffffffff16156120d257336001600160a01b038716148015906120b45750336001600160a01b03861614155b156120d25760405163763cac0b60e11b815260040160405180910390fd5b42826000015163ffffffff1611806120ef5750428163ffffffff16105b1561210d57604051633a230cd960e01b815260040160405180910390fd5b6000838152600260205260408120805463ffffffff19168155600101819055606083015183516001600160601b039091169061214f9063ffffffff164261311e565b6121599190613131565b90508260800151600014158061216e57508015155b1561220e57876001600160a01b03166323b872dd88888487608001516121949190613148565b6040516001600160e01b031960e086901b1681526001600160a01b03938416600482015292909116602483015260448201526064016020604051808303816000875af11580156121e8573d6000803e3d6000fd5b505050506040513d601f19601f8201168201806040525081019061220c919061315b565b505b606083015161222590600090899089908c90612570565b50856001600160a01b0316876001600160a01b0316896001600160a01b03167f55b5747e4a57fe6e94a7f59d179a30836f6f42c9b33d2aa3a8887107510952a4866000015187606001518860800151876040516122a6949392919063ffffffff949094168452600b9290920b60208401526040830152606082015260800190565b60405180910390a4506001979650505050505050565b606061232d604051806101000160405280886001600160a01b03168152602001876001600160a01b031681526020018681526020018563ffffffff168152602001600063ffffffff168152602001600063ffffffff168152602001600063ffffffff1681526020018481525061177a565b9050600061233a83611ef6565b9050612347878288611fca565b61235357612353613184565b5095945050505050565b60006001600160ff1b038211156123c75760405162461bcd60e51b815260206004820152602860248201527f53616665436173743a2076616c756520646f65736e27742066697420696e2061604482015267371034b73a191a9b60c11b60648201526084016106eb565b5090565b80600b81900b8114611fc55760405162461bcd60e51b815260206004820152602660248201527f53616665436173743a2076616c756520646f65736e27742066697420696e203960448201526536206269747360d01b60648201526084016106eb565b6000808212156123c75760405162461bcd60e51b815260206004820181905260248201527f53616665436173743a2076616c7565206d75737420626520706f73697469766560448201526064016106eb565b600061248c8284613131565b90505b92915050565b845460018601546040805160008152602081019091526060926001600160a01b03908116926339255d5b929116908190634c8b181f906124de9089908c908c9060448101613379565b60408051808303601f1901815291815260208201805160e094851b6001600160e01b03909116179052519185901b6001600160e01b03191682526125299392509087906004016133ad565b6000604051808303816000875af1158015612548573d6000803e3d6000fd5b505050506040513d6000823e601f3d908101601f1916820160405261136891908101906133e3565b6040805160008082528754600189015460208401928352838501909452606093611368938a938a938a938a938a9390928a926001600160a01b03918216926339255d5b929091169081906394229ecb906125d5908a908d908d908c9060648d01613417565b60408051808303601f1901815291815260208201805160e094851b6001600160e01b03909116179052519185901b6001600160e01b03191682526126209392509087906004016133ad565b6000604051808303816000875af115801561263f573d6000803e3d6000fd5b505050506040513d6000823e601f3d908101601f1916820160405261266791908101906133e3565b979650505050505050565b6001600160a01b038116811461268757600080fd5b50565b803563ffffffff81168114611fc557600080fd5b60008060008060008060c087890312156126b757600080fd5b86356126c281612672565b955060208701356126d281612672565b9450604087013593506126e76060880161268a565b92506126f56080880161268a565b915061270360a0880161268a565b90509295509295509295565b60008083601f84011261272157600080fd5b5081356001600160401b0381111561273857600080fd5b60208301915083602082850101111561275057600080fd5b9250929050565b600080600080600080600080600060c08a8c03121561277557600080fd5b893561278081612672565b985060208a013561279081612672565b975060408a0135965060608a01356001600160401b03808211156127b357600080fd5b6127bf8d838e0161270f565b909850965060808c01359150808211156127d857600080fd5b6127e48d838e0161270f565b909650945060a08c01359150808211156127fd57600080fd5b5061280a8c828d0161270f565b915080935050809150509295985092959850929598565b60005b8381101561283c578181015183820152602001612824565b50506000910152565b6000815180845261285d816020860160208601612821565b601f01601f19169290920160200192915050565b60208152600061248c6020830184612845565b600080600080600080600060a0888a03121561289f57600080fd5b87356128aa81612672565b965060208801356128ba81612672565b95506040880135945060608801356001600160401b03808211156128dd57600080fd5b6128e98b838c0161270f565b909650945060808a013591508082111561290257600080fd5b5061290f8a828b0161270f565b989b979a50959850939692959293505050565b600080600080600080600060e0888a03121561293d57600080fd5b873561294881612672565b9650602088013561295881612672565b95506040880135945061296d6060890161268a565b935061297b6080890161268a565b925061298960a0890161268a565b915061299760c0890161268a565b905092959891949750929550565b6000602082840312156129b757600080fd5b5035919050565b6000806000606084860312156129d357600080fd5b83356129de81612672565b925060208401356129ee81612672565b915060408401356129fe81612672565b809150509250925092565b80600b0b811461268757600080fd5b634e487b7160e01b600052604160045260246000fd5b60405161016081016001600160401b0381118282101715612a5157612a51612a18565b60405290565b604051601f8201601f191681016001600160401b0381118282101715612a7f57612a7f612a18565b604052919050565b60006001600160401b03821115612aa057612aa0612a18565b50601f01601f191660200190565b600082601f830112612abf57600080fd5b8135612ad2612acd82612a87565b612a57565b818152846020838601011115612ae757600080fd5b816020850160208301376000918101602001919091529392505050565b600080600080600080600080610100898b031215612b2157600080fd5b8835612b2c81612672565b97506020890135612b3c81612672565b9650612b4a60408a0161268a565b9550612b5860608a0161268a565b94506080890135612b6881612a09565b935060a08901359250612b7d60c08a0161268a565b915060e08901356001600160401b03811115612b9857600080fd5b612ba48b828c01612aae565b9150509295985092959890939650565b60008060008060008060008060006101208a8c031215612bd357600080fd5b8935612bde81612672565b985060208a0135612bee81612672565b9750612bfc60408b0161268a565b9650612c0a60608b0161268a565b9550612c1860808b0161268a565b945060a08a0135612c2881612a09565b935060c08a01359250612c3d60e08b0161268a565b91506101008a01356001600160401b03811115612c5957600080fd5b612c658c828d01612aae565b9150509295985092959850929598565b60008060008060808587031215612c8b57600080fd5b8435612c9681612672565b93506020850135612ca681612672565b925060408501359150612cbb6060860161268a565b905092959194509250565b600080600080600080600060e0888a031215612ce157600080fd5b8735612cec81612672565b96506020880135612cfc81612672565b955060408801359450612d116060890161268a565b9350612d1f6080890161268a565b9250612d2d60a0890161268a565b915060c08801356001600160401b03811115612d4857600080fd5b612d548a828b01612aae565b91505092959891949750929550565b60008060008060808587031215612d7957600080fd5b8435612d8481612672565b93506020850135612d9481612672565b9250612da26040860161268a565b915060608501356001600160401b03811115612dbd57600080fd5b612dc987828801612aae565b91505092959194509250565b600080600080600080600060e0888a031215612df057600080fd5b8735612dfb81612672565b96506020880135612e0b81612672565b9550612e196040890161268a565b9450612e276060890161268a565b93506080880135612e3781612a09565b925060a0880135915061299760c0890161268a565b600080600080600060a08688031215612e6457600080fd5b8535612e6f81612672565b94506020860135612e7f81612672565b935060408601359250612e946060870161268a565b9150612ea26080870161268a565b90509295509295909350565b600080600060608486031215612ec357600080fd5b8335612ece81612672565b92506020840135612ede81612672565b915060408401356001600160401b03811115612ef957600080fd5b612f0586828701612aae565b9150509250925092565b600080600080600060a08688031215612f2757600080fd5b8535612f3281612672565b94506020860135612f4281612672565b935060408601359250612f576060870161268a565b915060808601356001600160401b03811115612f7257600080fd5b612f7e88828901612aae565b9150509295509295909350565b600080600080600080600080610100898b031215612fa857600080fd5b8835612fb381612672565b97506020890135612fc381612672565b965060408901359550612fd860608a0161268a565b9450612fe660808a0161268a565b9350612ff460a08a0161268a565b9250612b7d60c08a0161268a565b600080600080600080600080610100898b03121561301f57600080fd5b883561302a81612672565b9750602089013561303a81612672565b965061304860408a0161268a565b955061305660608a0161268a565b945061306460808a0161268a565b935060a089013561307481612a09565b925060c0890135915061308960e08a0161268a565b90509295985092959890939650565b634e487b7160e01b600052601160045260246000fd5b63ffffffff8181168382160190808211156130cb576130cb613098565b5092915050565b63ffffffff8281168282160390808211156130cb576130cb613098565b6bffffffffffffffffffffffff19606094851b8116825292841b83166014820152921b166028820152603c0190565b8181038181111561248f5761248f613098565b808202811582820484141761248f5761248f613098565b8082018082111561248f5761248f613098565b60006020828403121561316d57600080fd5b8151801515811461317d57600080fd5b9392505050565b634e487b7160e01b600052600160045260246000fd5b6000826131b757634e487b7160e01b600052601260045260246000fd5b500490565b600080600080608085870312156131d257600080fd5b8451935060208501516131e481612a09565b6040860151606090960151949790965092505050565b805160ff81168114611fc557600080fd5b8051611fc581612672565b80516001600160e01b031981168114611fc557600080fd5b600082601f83011261323f57600080fd5b815161324d612acd82612a87565b81815284602083860101111561326257600080fd5b61114b826020830160208701612821565b60006020828403121561328557600080fd5b81516001600160401b038082111561329c57600080fd5b9083019061016082860312156132b157600080fd5b6132b9612a2e565b6132c2836131fa565b81526132d0602084016131fa565b6020820152604083015160408201526132eb6060840161320b565b60608201526132fc60808401613216565b608082015260a08301518281111561331357600080fd5b61331f8782860161322e565b60a08301525060c083015160c082015260e083015160e082015261010091508183015182820152610120915061335682840161320b565b82820152610140915061336a82840161320b565b91810191909152949350505050565b6001600160a01b03858116825284811660208301528316604082015260806060820181905260009061136890830184612845565b6001600160a01b03841681526060602082018190526000906133d190830185612845565b82810360408401526113688185612845565b6000602082840312156133f557600080fd5b81516001600160401b0381111561340b57600080fd5b61114b8482850161322e565b6001600160a01b038681168252858116602083015284166040820152600b83900b606082015260a0608082018190526000906126679083018461284556fea2646970667358221220f167041f64f19746de7d3c99757233941031e6d55fc0862371441ad2e567851f64736f6c63430008170033",
  "linkReferences": {},
  "deployedLinkReferences": {}
}