{
  "_format": "hh-sol-artifact-1",
  "contractName": "VestingScheduler",
  "sourceName": "contracts/VestingScheduler.sol",
  "abi": [
    {
      "inputs": [
        {
          "internalType": "contract ISuperfluid",
          "name": "host",
          "type": "address"
        },
        {
          "internalType": "string",
          "name": "registrationKey",
          "type": "string"
        }
      ],
      "stateMutability": "nonpayable",
      "type": "constructor"
    },
    {
      "inputs": [],
      "name": "AccountInvalid",
      "type": "error"
    },
    {
      "inputs": [],
      "name": "CliffInvalid",
      "type": "error"
    },
    {
      "inputs": [],
      "name": "FlowRateInvalid",
      "type": "error"
    },
    {
      "inputs": [],
      "name": "HostInvalid",
      "type": "error"
    },
    {
      "inputs": [],
      "name": "ScheduleAlreadyExists",
      "type": "error"
    },
    {
      "inputs": [],
      "name": "ScheduleDoesNotExist",
      "type": "error"
    },
    {
      "inputs": [],
      "name": "ScheduleNotFlowing",
      "type": "error"
    },
    {
      "inputs": [],
      "name": "TimeWindowInvalid",
      "type": "error"
    },
    {
      "inputs": [],
      "name": "ZeroAddress",
      "type": "error"
    },
    {
      "anonymous": false,
      "inputs": [
        {
          "indexed": true,
          "internalType": "contract ISuperToken",
          "name": "superToken",
          "type": "address"
        },
        {
          "indexed": true,
          "internalType": "address",
          "name": "sender",
          "type": "address"
        },
        {
          "indexed": true,
          "internalType": "address",
          "name": "receiver",
          "type": "address"
        },
        {
          "indexed": false,
          "internalType": "uint32",
          "name": "cliffAndFlowDate",
          "type": "uint32"
        },
        {
          "indexed": false,
          "internalType": "int96",
          "name": "flowRate",
          "type": "int96"
        },
        {
          "indexed": false,
          "internalType": "uint256",
          "name": "cliffAmount",
          "type": "uint256"
        },
        {
          "indexed": false,
          "internalType": "uint256",
          "name": "flowDelayCompensation",
          "type": "uint256"
        }
      ],
      "name": "VestingCliffAndFlowExecuted",
      "type": "event"
    },
    {
      "anonymous": false,
      "inputs": [
        {
          "indexed": true,
          "internalType": "contract ISuperToken",
          "name": "superToken",
          "type": "address"
        },
        {
          "indexed": true,
          "internalType": "address",
          "name": "sender",
          "type": "address"
        },
        {
          "indexed": true,
          "internalType": "address",
          "name": "receiver",
          "type": "address"
        },
        {
          "indexed": false,
          "internalType": "uint32",
          "name": "endDate",
          "type": "uint32"
        },
        {
          "indexed": false,
          "internalType": "uint256",
          "name": "earlyEndCompensation",
          "type": "uint256"
        },
        {
          "indexed": false,
          "internalType": "bool",
          "name": "didCompensationFail",
          "type": "bool"
        }
      ],
      "name": "VestingEndExecuted",
      "type": "event"
    },
    {
      "anonymous": false,
      "inputs": [
        {
          "indexed": true,
          "internalType": "contract ISuperToken",
          "name": "superToken",
          "type": "address"
        },
        {
          "indexed": true,
          "internalType": "address",
          "name": "sender",
          "type": "address"
        },
        {
          "indexed": true,
          "internalType": "address",
          "name": "receiver",
          "type": "address"
        },
        {
          "indexed": false,
          "internalType": "uint32",
          "name": "endDate",
          "type": "uint32"
        }
      ],
      "name": "VestingEndFailed",
      "type": "event"
    },
    {
      "anonymous": false,
      "inputs": [
        {
          "indexed": true,
          "internalType": "contract ISuperToken",
          "name": "superToken",
          "type": "address"
        },
        {
          "indexed": true,
          "internalType": "address",
          "name": "sender",
          "type": "address"
        },
        {
          "indexed": true,
          "internalType": "address",
          "name": "receiver",
          "type": "address"
        },
        {
          "indexed": false,
          "internalType": "uint32",
          "name": "startDate",
          "type": "uint32"
        },
        {
          "indexed": false,
          "internalType": "uint32",
          "name": "cliffDate",
          "type": "uint32"
        },
        {
          "indexed": false,
          "internalType": "int96",
          "name": "flowRate",
          "type": "int96"
        },
        {
          "indexed": false,
          "internalType": "uint32",
          "name": "endDate",
          "type": "uint32"
        },
        {
          "indexed": false,
          "internalType": "uint256",
          "name": "cliffAmount",
          "type": "uint256"
        }
      ],
      "name": "VestingScheduleCreated",
      "type": "event"
    },
    {
      "anonymous": false,
      "inputs": [
        {
          "indexed": true,
          "internalType": "contract ISuperToken",
          "name": "superToken",
          "type": "address"
        },
        {
          "indexed": true,
          "internalType": "address",
          "name": "sender",
          "type": "address"
        },
        {
          "indexed": true,
          "internalType": "address",
          "name": "receiver",
          "type": "address"
        }
      ],
      "name": "VestingScheduleDeleted",
      "type": "event"
    },
    {
      "anonymous": false,
      "inputs": [
        {
          "indexed": true,
          "internalType": "contract ISuperToken",
          "name": "superToken",
          "type": "address"
        },
        {
          "indexed": true,
          "internalType": "address",
          "name": "sender",
          "type": "address"
        },
        {
          "indexed": true,
          "internalType": "address",
          "name": "receiver",
          "type": "address"
        },
        {
          "indexed": false,
          "internalType": "uint32",
          "name": "oldEndDate",
          "type": "uint32"
        },
        {
          "indexed": false,
          "internalType": "uint32",
          "name": "endDate",
          "type": "uint32"
        }
      ],
      "name": "VestingScheduleUpdated",
      "type": "event"
    },
    {
      "inputs": [],
      "name": "END_DATE_VALID_BEFORE",
      "outputs": [
        {
          "internalType": "uint32",
          "name": "",
          "type": "uint32"
        }
      ],
      "stateMutability": "view",
      "type": "function"
    },
    {
      "inputs": [],
      "name": "MIN_VESTING_DURATION",
      "outputs": [
        {
          "internalType": "uint32",
          "name": "",
          "type": "uint32"
        }
      ],
      "stateMutability": "view",
      "type": "function"
    },
    {
      "inputs": [],
      "name": "START_DATE_VALID_AFTER",
      "outputs": [
        {
          "internalType": "uint32",
          "name": "",
          "type": "uint32"
        }
      ],
      "stateMutability": "view",
      "type": "function"
    },
    {
      "inputs": [
        {
          "internalType": "contract ISuperToken",
          "name": "",
          "type": "address"
        },
        {
          "internalType": "address",
          "name": "",
          "type": "address"
        },
        {
          "internalType": "bytes32",
          "name": "",
          "type": "bytes32"
        },
        {
          "internalType": "bytes",
          "name": "",
          "type": "bytes"
        },
        {
          "internalType": "bytes",
          "name": "",
          "type": "bytes"
        },
        {
          "internalType": "bytes",
          "name": "",
          "type": "bytes"
        }
      ],
      "name": "afterAgreementCreated",
      "outputs": [
        {
          "internalType": "bytes",
          "name": "",
          "type": "bytes"
        }
      ],
      "stateMutability": "nonpayable",
      "type": "function"
    },
    {
      "inputs": [
        {
          "internalType": "contract ISuperToken",
          "name": "",
          "type": "address"
        },
        {
          "internalType": "address",
          "name": "",
          "type": "address"
        },
        {
          "internalType": "bytes32",
          "name": "",
          "type": "bytes32"
        },
        {
          "internalType": "bytes",
          "name": "",
          "type": "bytes"
        },
        {
          "internalType": "bytes",
          "name": "",
          "type": "bytes"
        },
        {
          "internalType": "bytes",
          "name": "",
          "type": "bytes"
        }
      ],
      "name": "afterAgreementTerminated",
      "outputs": [
        {
          "internalType": "bytes",
          "name": "",
          "type": "bytes"
        }
      ],
      "stateMutability": "nonpayable",
      "type": "function"
    },
    {
      "inputs": [
        {
          "internalType": "contract ISuperToken",
          "name": "",
          "type": "address"
        },
        {
          "internalType": "address",
          "name": "",
          "type": "address"
        },
        {
          "internalType": "bytes32",
          "name": "",
          "type": "bytes32"
        },
        {
          "internalType": "bytes",
          "name": "",
          "type": "bytes"
        },
        {
          "internalType": "bytes",
          "name": "",
          "type": "bytes"
        },
        {
          "internalType": "bytes",
          "name": "",
          "type": "bytes"
        }
      ],
      "name": "afterAgreementUpdated",
      "outputs": [
        {
          "internalType": "bytes",
          "name": "",
          "type": "bytes"
        }
      ],
      "stateMutability": "nonpayable",
      "type": "function"
    },
    {
      "inputs": [
        {
          "internalType": "contract ISuperToken",
          "name": "",
          "type": "address"
        },
        {
          "internalType": "address",
          "name": "",
          "type": "address"
        },
        {
          "internalType": "bytes32",
          "name": "",
          "type": "bytes32"
        },
        {
          "internalType": "bytes",
          "name": "",
          "type": "bytes"
        },
        {
          "internalType": "bytes",
          "name": "",
          "type": "bytes"
        }
      ],
      "name": "beforeAgreementCreated",
      "outputs": [
        {
          "internalType": "bytes",
          "name": "",
          "type": "bytes"
        }
      ],
      "stateMutability": "view",
      "type": "function"
    },
    {
      "inputs": [
        {
          "internalType": "contract ISuperToken",
          "name": "",
          "type": "address"
        },
        {
          "internalType": "address",
          "name": "",
          "type": "address"
        },
        {
          "internalType": "bytes32",
          "name": "",
          "type": "bytes32"
        },
        {
          "internalType": "bytes",
          "name": "",
          "type": "bytes"
        },
        {
          "internalType": "bytes",
          "name": "",
          "type": "bytes"
        }
      ],
      "name": "beforeAgreementTerminated",
      "outputs": [
        {
          "internalType": "bytes",
          "name": "",
          "type": "bytes"
        }
      ],
      "stateMutability": "view",
      "type": "function"
    },
    {
      "inputs": [
        {
          "internalType": "contract ISuperToken",
          "name": "",
          "type": "address"
        },
        {
          "internalType": "address",
          "name": "",
          "type": "address"
        },
        {
          "internalType": "bytes32",
          "name": "",
          "type": "bytes32"
        },
        {
          "internalType": "bytes",
          "name": "",
          "type": "bytes"
        },
        {
          "internalType": "bytes",
          "name": "",
          "type": "bytes"
        }
      ],
      "name": "beforeAgreementUpdated",
      "outputs": [
        {
          "internalType": "bytes",
          "name": "",
          "type": "bytes"
        }
      ],
      "stateMutability": "view",
      "type": "function"
    },
    {
      "inputs": [],
      "name": "cfaV1",
      "outputs": [
        {
          "internalType": "contract ISuperfluid",
          "name": "host",
          "type": "address"
        },
        {
          "internalType": "contract IConstantFlowAgreementV1",
          "name": "cfa",
          "type": "address"
        }
      ],
      "stateMutability": "view",
      "type": "function"
    },
    {
      "inputs": [
        {
          "internalType": "contract ISuperToken",
          "name": "superToken",
          "type": "address"
        },
        {
          "internalType": "address",
          "name": "receiver",
          "type": "address"
        },
        {
          "internalType": "uint32",
          "name": "startDate",
          "type": "uint32"
        },
        {
          "internalType": "uint32",
          "name": "cliffDate",
          "type": "uint32"
        },
        {
          "internalType": "int96",
          "name": "flowRate",
          "type": "int96"
        },
        {
          "internalType": "uint256",
          "name": "cliffAmount",
          "type": "uint256"
        },
        {
          "internalType": "uint32",
          "name": "endDate",
          "type": "uint32"
        },
        {
          "internalType": "bytes",
          "name": "ctx",
          "type": "bytes"
        }
      ],
      "name": "createVestingSchedule",
      "outputs": [
        {
          "internalType": "bytes",
          "name": "newCtx",
          "type": "bytes"
        }
      ],
      "stateMutability": "nonpayable",
      "type": "function"
    },
    {
      "inputs": [
        {
          "internalType": "contract ISuperToken",
          "name": "superToken",
          "type": "address"
        },
        {
          "internalType": "address",
          "name": "receiver",
          "type": "address"
        },
        {
          "internalType": "bytes",
          "name": "ctx",
          "type": "bytes"
        }
      ],
      "name": "deleteVestingSchedule",
      "outputs": [
        {
          "internalType": "bytes",
          "name": "newCtx",
          "type": "bytes"
        }
      ],
      "stateMutability": "nonpayable",
      "type": "function"
    },
    {
      "inputs": [
        {
          "internalType": "contract ISuperToken",
          "name": "superToken",
          "type": "address"
        },
        {
          "internalType": "address",
          "name": "sender",
          "type": "address"
        },
        {
          "internalType": "address",
          "name": "receiver",
          "type": "address"
        }
      ],
      "name": "executeCliffAndFlow",
      "outputs": [
        {
          "internalType": "bool",
          "name": "success",
          "type": "bool"
        }
      ],
      "stateMutability": "nonpayable",
      "type": "function"
    },
    {
      "inputs": [
        {
          "internalType": "contract ISuperToken",
          "name": "superToken",
          "type": "address"
        },
        {
          "internalType": "address",
          "name": "sender",
          "type": "address"
        },
        {
          "internalType": "address",
          "name": "receiver",
          "type": "address"
        }
      ],
      "name": "executeEndVesting",
      "outputs": [
        {
          "internalType": "bool",
          "name": "success",
          "type": "bool"
        }
      ],
      "stateMutability": "nonpayable",
      "type": "function"
    },
    {
      "inputs": [
        {
          "internalType": "address",
          "name": "supertoken",
          "type": "address"
        },
        {
          "internalType": "address",
          "name": "sender",
          "type": "address"
        },
        {
          "internalType": "address",
          "name": "receiver",
          "type": "address"
        }
      ],
      "name": "getVestingSchedule",
      "outputs": [
        {
          "components": [
            {
              "internalType": "uint32",
              "name": "cliffAndFlowDate",
              "type": "uint32"
            },
            {
              "internalType": "uint32",
              "name": "endDate",
              "type": "uint32"
            },
            {
              "internalType": "int96",
              "name": "flowRate",
              "type": "int96"
            },
            {
              "internalType": "uint256",
              "name": "cliffAmount",
              "type": "uint256"
            }
          ],
          "internalType": "struct IVestingScheduler.VestingSchedule",
          "name": "",
          "type": "tuple"
        }
      ],
      "stateMutability": "view",
      "type": "function"
    },
    {
      "inputs": [
        {
          "internalType": "contract ISuperToken",
          "name": "superToken",
          "type": "address"
        },
        {
          "internalType": "address",
          "name": "receiver",
          "type": "address"
        },
        {
          "internalType": "uint32",
          "name": "endDate",
          "type": "uint32"
        },
        {
          "internalType": "bytes",
          "name": "ctx",
          "type": "bytes"
        }
      ],
      "name": "updateVestingSchedule",
      "outputs": [
        {
          "internalType": "bytes",
          "name": "newCtx",
          "type": "bytes"
        }
      ],
      "stateMutability": "nonpayable",
      "type": "function"
    },
    {
      "inputs": [
        {
          "internalType": "bytes32",
          "name": "",
          "type": "bytes32"
        }
      ],
      "name": "vestingSchedules",
      "outputs": [
        {
          "internalType": "uint32",
          "name": "cliffAndFlowDate",
          "type": "uint32"
        },
        {
          "internalType": "uint32",
          "name": "endDate",
          "type": "uint32"
        },
        {
          "internalType": "int96",
          "name": "flowRate",
          "type": "int96"
        },
        {
          "internalType": "uint256",
          "name": "cliffAmount",
          "type": "uint256"
        }
      ],
      "stateMutability": "view",
      "type": "function"
    }
  ],
  "bytecode": "0x60806040523480156200001157600080fd5b50604051620020d2380380620020d28339810160408190526200003491620001cc565b6040805180820182526001600160a01b0384168082529151635b69006f60e11b81527fa9214cc96615e0085d3bb077758db69497dc2dce3b2b1e97bc93c3d18d83efd360048201529091602083019163b6d200de90602401602060405180830381865afa158015620000aa573d6000803e3d6000fd5b505050506040513d601f19601f82011682018060405250810190620000d091906200029c565b6001600160a01b039081169091528151600080549183166001600160a01b031992831617905560209092015160018054918316919093161790915560405163bd1c448b60e01b8152643f000000019184169063bd1c448b906200013a9084908690600401620002c3565b600060405180830381600087803b1580156200015557600080fd5b505af11580156200016a573d6000803e3d6000fd5b50505050505050620002ff565b6001600160a01b03811681146200018d57600080fd5b50565b634e487b7160e01b600052604160045260246000fd5b60005b83811015620001c3578181015183820152602001620001a9565b50506000910152565b60008060408385031215620001e057600080fd5b8251620001ed8162000177565b60208401519092506001600160401b03808211156200020b57600080fd5b818501915085601f8301126200022057600080fd5b81518181111562000235576200023562000190565b604051601f8201601f19908116603f0116810190838211818310171562000260576200026062000190565b816040528281528860208487010111156200027a57600080fd5b6200028d836020830160208801620001a6565b80955050505050509250929050565b600060208284031215620002af57600080fd5b8151620002bc8162000177565b9392505050565b8281526040602082015260008251806040840152620002ea816060850160208701620001a6565b601f01601f1916919091016060019392505050565b611dc3806200030f6000396000f3fe608060405234801561001057600080fd5b506004361061010b5760003560e01c80637648e965116100a25780639223d9c1116100715780639223d9c1146102c5578063ac42347a146102d8578063d3112b2e146102eb578063d86ed3e514610325578063f67b5c7e1461013957600080fd5b80637648e96514610234578063835942d714610247578063884d1f401461025a57806389a1976f1461026d57600080fd5b806353c11f99116100de57806353c11f99146101735780635f9e7d7714610186578063604178871461019957806371de407e1461021157600080fd5b8063230dbd29146101105780632719e010146101395780633011071e1461015757806330d9c91514610160575b600080fd5b61012361011e366004611519565b610338565b6040516101309190611634565b60405180910390f35b61014261025881565b60405163ffffffff9091168152602001610130565b6101426104b081565b61012361016e36600461164e565b61039f565b610123610181366004611519565b610402565b61012361019436600461164e565b610467565b6101e06101a73660046116ed565b6002602052600090815260409020805460019091015463ffffffff80831692600160201b810490911691600160401b909104600b0b9084565b6040805163ffffffff9586168152949093166020850152600b9190910b918301919091526060820152608001610130565b61022461021f366004611706565b6104ce565b6040519015158152602001610130565b610123610242366004611863565b61077f565b610123610255366004611914565b610afd565b61012361026836600461164e565b610c72565b61028061027b366004611706565b610cd5565b6040516101309190600060808201905063ffffffff808451168352806020850151166020840152506040830151600b0b60408301526060830151606083015292915050565b6102246102d3366004611706565b610d81565b6101236102e6366004611987565b610fd2565b600054600154610305916001600160a01b03908116911682565b604080516001600160a01b03938416815292909116602083015201610130565b610123610333366004611519565b6110b4565b60405162461bcd60e51b815260206004820152602e60248201527f556e737570706f727465642063616c6c6261636b202d2041667465722041677260448201526d19595b595b9d08155c19185d195960921b60648201526060906084015b60405180910390fd5b60405162461bcd60e51b815260206004820152602f60248201527f556e737570706f727465642063616c6c6261636b202d204265666f726520416760448201526e1c99595b595b9d0810dc99585d1959608a1b6064820152606090608401610396565b60405162461bcd60e51b815260206004820152603160248201527f556e737570706f727465642063616c6c6261636b202d2041667465722041677260448201527019595b595b9d0815195c9b5a5b985d1959607a1b6064820152606090608401610396565b60405162461bcd60e51b815260206004820152603360248201527f556e737570706f727465642063616c6c6261636b202d20204265666f7265204160448201527219dc99595b595b9d0815195c9b5a5b985d1959606a1b6064820152606090608401610396565b6000808484846040516020016104e6939291906119e9565b60408051601f198184030181528282528051602091820120600081815260028352839020608085018452805463ffffffff8082168752600160201b820416938601849052600160401b9004600b0b93850193909352600190920154606084015290925042906105589061025890611a2e565b63ffffffff16111561057d57604051633a230cd960e01b815260040160405180910390fd5b600082815260026020526040812080546001600160a01b0319168155600101556105a8868686611116565b1561070d576105ba60008686896111a9565b50600042826020015163ffffffff16116105d5576000610603565b81604001516001600160601b031642836020015163ffffffff166105f99190611a52565b6106039190611a6b565b90506000811561068e576040516323b872dd60e01b81526001600160a01b0388811660048301528781166024830152604482018490528916906323b872dd906064016020604051808303816000875af1925050508015610680575060408051601f3d908101601f1916820190925261067d91810190611a82565b60015b61068c5750600161068e565b505b856001600160a01b0316876001600160a01b0316896001600160a01b03167f18c0f95c8f947c789fc5b704b2f1299671614639c64bf6af260bd210bc184ba2866020015186866040516106fe9392919063ffffffff93909316835260208301919091521515604082015260600190565b60405180910390a45050610773565b836001600160a01b0316856001600160a01b0316876001600160a01b03167fcb5ed4b0fc620b552fbd3a82d5fb0f9a57eb30a7ef218f4a4974b871f648f6e8846020015160405161076a919063ffffffff91909116815260200190565b60405180910390a45b50600195945050505050565b80600061078b826111d5565b90506001600160a01b03891615806107b45750806001600160a01b0316896001600160a01b0316145b156107d25760405163a9c6791d60e01b815260040160405180910390fd5b6001600160a01b038a166107f95760405163d92e233d60e01b815260040160405180910390fd5b600086600b0b1361081d576040516308bea1af60e41b815260040160405180910390fd5b63ffffffff87161580159061083d57508663ffffffff168863ffffffff16115b1561085b57604051633a230cd960e01b815260040160405180910390fd5b63ffffffff871615801561086e57508415155b1561088c57604051635357da6360e01b815260040160405180910390fd5b600063ffffffff8816156108a057876108a2565b885b9050428163ffffffff161115806108c557508463ffffffff168163ffffffff1610155b806108f257506108d761025886611a2e565b63ffffffff166108e961025883611aa4565b63ffffffff1610155b8061090d57506104b06109058287611a2e565b63ffffffff16105b1561092b57604051633a230cd960e01b815260040160405180910390fd5b60008b838c604051602001610942939291906119e9565b60408051808303601f19018152918152815160209283012060008181526002909352912054909150600160201b900463ffffffff16156109955760405163e109c26360e01b815260040160405180910390fd5b60405180608001604052808363ffffffff1681526020018763ffffffff16815260200189600b0b8152602001888152506002600083815260200190815260200160002060008201518160000160006101000a81548163ffffffff021916908363ffffffff16021790555060208201518160000160046101000a81548163ffffffff021916908363ffffffff16021790555060408201518160000160086101000a8154816001600160601b030219169083600b0b6001600160601b03160217905550606082015181600101559050508a6001600160a01b0316836001600160a01b03168d6001600160a01b03167fff14b28ed767437ab23fdd4d479cc5ab6784d392145c3197ce1e8e953a33b5d68d8d8d8c8e604051610ae695949392919063ffffffff95861681529385166020850152600b9290920b60408401529092166060820152608081019190915260a00190565b60405180910390a450505098975050505050505050565b806000610b09826111d5565b90506000868287604051602001610b22939291906119e9565b60408051601f198184030181528282528051602091820120600081815260028352839020608085018452805463ffffffff8082168752600160201b8204811694870194909452600160401b9004600b0b9385019390935260019092015460608401529092504290871611610ba957604051633a230cd960e01b815260040160405180910390fd5b805163ffffffff16151580610bc65750602081015163ffffffff16155b15610be45760405163e23d21e760e01b815260040160405180910390fd5b600082815260026020908152604091829020805467ffffffff000000001916600160201b63ffffffff8b81169182029290921790925584830151845191168152918201526001600160a01b038981169286821692918c16917f5656285dd3a31235e7b67252cd44c997ee7a3d1b7656497c444212a7caa30c3e910160405180910390a4505050949350505050565b60405162461bcd60e51b815260206004820152602f60248201527f556e737570706f727465642063616c6c6261636b202d204265666f726520416760448201526e1c99595b595b9d081d5c19185d1959608a1b6064820152606090608401610396565b60408051608081018252600080825260208201819052918101829052606081019190915260026000858585604051602001610d12939291906119e9565b60408051808303601f1901815291815281516020928301208352828201939093529082016000208251608081018452815463ffffffff8082168352600160201b82041693820193909352600160401b909204600b0b928201929092526001909101546060820152949350505050565b600080848484604051602001610d99939291906119e9565b60408051601f198184030181528282528051602091820120600081815260028352839020608085018452805463ffffffff808216808852600160201b830490911694870194909452600160401b9004600b0b938501939093526001909201546060840152909250421080610e21575080514290610e199061025890611aa4565b63ffffffff16105b15610e3f57604051633a230cd960e01b815260040160405180910390fd5b600082815260026020526040808220805463ffffffff1916815560010182905582015182516001600160601b0390911690610e809063ffffffff1642611a52565b610e8a9190611a6b565b905081606001516000141580610e9f57508015155b15610f3f57866001600160a01b03166323b872dd8787848660600151610ec59190611ac1565b6040516001600160e01b031960e086901b1681526001600160a01b03938416600482015292909116602483015260448201526064016020604051808303816000875af1158015610f19573d6000803e3d6000fd5b505050506040513d601f19601f82011682018060405250810190610f3d9190611a82565b505b6040820151610f5690600090889088908b906112a9565b508151604080840151606080860151835163ffffffff9095168552600b9290920b60208501529183015281018290526001600160a01b0380871691888216918a16907f55b5747e4a57fe6e94a7f59d179a30836f6f42c9b33d2aa3a8887107510952a49060800160405180910390a45060019695505050505050565b806000610fde826111d5565b90506000858286604051602001610ff7939291906119e9565b60408051808303601f19018152918152815160209283012060008181526002909352912054909150600160201b900463ffffffff16156110925760008181526002602052604080822080546001600160a01b0319168155600101829055516001600160a01b038088169285821692918a16917fffdbd3e70c7da1df271588aaf77ca99625058da916f9d29cdc13d6f8e4f900ab9190a46110ab565b6040516319cfbfcd60e11b815260040160405180910390fd5b50509392505050565b60405162461bcd60e51b815260206004820152602e60248201527f556e737570706f727465642063616c6c6261636b202d2041667465722041677260448201526d19595b595b9d0810dc99585d195960921b6064820152606090608401610396565b600154604051631cd43d1160e31b81526001600160a01b03858116600483015284811660248301528381166044830152600092839291169063e6a1e88890606401608060405180830381865afa158015611174573d6000803e3d6000fd5b505050506040513d601f19601f820116820180604052508101906111989190611ad4565b5050600b0b15159695505050505050565b6040805160008152602081019091526060906111cc9086908690869086906112d8565b95945050505050565b6000815160001461128b576000546001600160a01b0316331461120b57604051632772d7f360e21b815260040160405180910390fd5b600054604051631fb6491d60e11b81526001600160a01b0390911690633f6c923a9061123b908590600401611634565b600060405180830381865afa158015611258573d6000803e3d6000fd5b505050506040513d6000823e601f3d908101601f191682016040526112809190810190611b93565b60600151905061128e565b50335b6001600160a01b0381166112a4576112a4611c9a565b919050565b6040805160008152602081019091526060906112ce90879087908790879087906113b3565b9695505050505050565b845460018601546040805160008152602081019091526060926001600160a01b03908116926339255d5b929116908190634c8b181f906113219089908c908c9060448101611cb0565b60408051808303601f1901815291815260208201805160e094851b6001600160e01b03909116179052519185901b6001600160e01b031916825261136c939250908790600401611ce4565b6000604051808303816000875af115801561138b573d6000803e3d6000fd5b505050506040513d6000823e601f3d908101601f191682016040526112ce9190810190611d1a565b855460018701546060916001600160a01b03908116916339255d5b9116806394229ecb888b8b8a60006040519080825280601f01601f191660200182016040528015611406576020820181803683370190505b5060405160240161141b959493929190611d4f565b60408051808303601f1901815291815260208201805160e094851b6001600160e01b03909116179052519185901b6001600160e01b0319168252611466939250908790600401611ce4565b6000604051808303816000875af1158015611485573d6000803e3d6000fd5b505050506040513d6000823e601f3d908101601f191682016040526114ad9190810190611d1a565b979650505050505050565b6001600160a01b03811681146114cd57600080fd5b50565b60008083601f8401126114e257600080fd5b50813567ffffffffffffffff8111156114fa57600080fd5b60208301915083602082850101111561151257600080fd5b9250929050565b600080600080600080600080600060c08a8c03121561153757600080fd5b8935611542816114b8565b985060208a0135611552816114b8565b975060408a0135965060608a013567ffffffffffffffff8082111561157657600080fd5b6115828d838e016114d0565b909850965060808c013591508082111561159b57600080fd5b6115a78d838e016114d0565b909650945060a08c01359150808211156115c057600080fd5b506115cd8c828d016114d0565b915080935050809150509295985092959850929598565b60005b838110156115ff5781810151838201526020016115e7565b50506000910152565b600081518084526116208160208601602086016115e4565b601f01601f19169290920160200192915050565b6020815260006116476020830184611608565b9392505050565b600080600080600080600060a0888a03121561166957600080fd5b8735611674816114b8565b96506020880135611684816114b8565b955060408801359450606088013567ffffffffffffffff808211156116a857600080fd5b6116b48b838c016114d0565b909650945060808a01359150808211156116cd57600080fd5b506116da8a828b016114d0565b989b979a50959850939692959293505050565b6000602082840312156116ff57600080fd5b5035919050565b60008060006060848603121561171b57600080fd5b8335611726816114b8565b92506020840135611736816114b8565b91506040840135611746816114b8565b809150509250925092565b803563ffffffff811681146112a457600080fd5b80600b0b81146114cd57600080fd5b634e487b7160e01b600052604160045260246000fd5b604051610160810167ffffffffffffffff811182821017156117ae576117ae611774565b60405290565b604051601f8201601f1916810167ffffffffffffffff811182821017156117dd576117dd611774565b604052919050565b600067ffffffffffffffff8211156117ff576117ff611774565b50601f01601f191660200190565b600082601f83011261181e57600080fd5b813561183161182c826117e5565b6117b4565b81815284602083860101111561184657600080fd5b816020850160208301376000918101602001919091529392505050565b600080600080600080600080610100898b03121561188057600080fd5b883561188b816114b8565b9750602089013561189b816114b8565b96506118a960408a01611751565b95506118b760608a01611751565b945060808901356118c781611765565b935060a089013592506118dc60c08a01611751565b915060e089013567ffffffffffffffff8111156118f857600080fd5b6119048b828c0161180d565b9150509295985092959890939650565b6000806000806080858703121561192a57600080fd5b8435611935816114b8565b93506020850135611945816114b8565b925061195360408601611751565b9150606085013567ffffffffffffffff81111561196f57600080fd5b61197b8782880161180d565b91505092959194509250565b60008060006060848603121561199c57600080fd5b83356119a7816114b8565b925060208401356119b7816114b8565b9150604084013567ffffffffffffffff8111156119d357600080fd5b6119df8682870161180d565b9150509250925092565b6bffffffffffffffffffffffff19606094851b8116825292841b83166014820152921b166028820152603c0190565b634e487b7160e01b600052601160045260246000fd5b63ffffffff828116828216039080821115611a4b57611a4b611a18565b5092915050565b81810381811115611a6557611a65611a18565b92915050565b8082028115828204841417611a6557611a65611a18565b600060208284031215611a9457600080fd5b8151801515811461164757600080fd5b63ffffffff818116838216019080821115611a4b57611a4b611a18565b80820180821115611a6557611a65611a18565b60008060008060808587031215611aea57600080fd5b845193506020850151611afc81611765565b6040860151606090960151949790965092505050565b805160ff811681146112a457600080fd5b80516112a4816114b8565b80516001600160e01b0319811681146112a457600080fd5b600082601f830112611b5757600080fd5b8151611b6561182c826117e5565b818152846020838601011115611b7a57600080fd5b611b8b8260208301602087016115e4565b949350505050565b600060208284031215611ba557600080fd5b815167ffffffffffffffff80821115611bbd57600080fd5b908301906101608286031215611bd257600080fd5b611bda61178a565b611be383611b12565b8152611bf160208401611b12565b602082015260408301516040820152611c0c60608401611b23565b6060820152611c1d60808401611b2e565b608082015260a083015182811115611c3457600080fd5b611c4087828601611b46565b60a08301525060c083015160c082015260e083015160e0820152610100915081830151828201526101209150611c77828401611b23565b828201526101409150611c8b828401611b23565b91810191909152949350505050565b634e487b7160e01b600052600160045260246000fd5b6001600160a01b0385811682528481166020830152831660408201526080606082018190526000906112ce90830184611608565b6001600160a01b0384168152606060208201819052600090611d0890830185611608565b82810360408401526112ce8185611608565b600060208284031215611d2c57600080fd5b815167ffffffffffffffff811115611d4357600080fd5b611b8b84828501611b46565b6001600160a01b038681168252858116602083015284166040820152600b83900b606082015260a0608082018190526000906114ad9083018461160856fea2646970667358221220caceffc2900c8da1b8fddbb996fdef7cdb8ea592611909eee0df9dc7cfa40f9b64736f6c63430008110033",
  "linkReferences": {},
  "deployedLinkReferences": {}
}