{
  "_format": "hh-sol-artifact-1",
  "contractName": "FlowScheduler",
  "sourceName": "contracts/FlowScheduler.sol",
  "abi": [
    {
      "inputs": [
        {
          "internalType": "contract ISuperfluid",
          "name": "host",
          "type": "address"
        },
        {
          "internalType": "string",
          "name": "registrationKey",
          "type": "string"
        }
      ],
      "stateMutability": "nonpayable",
      "type": "constructor"
    },
    {
      "inputs": [],
      "name": "AccountInvalid",
      "type": "error"
    },
    {
      "inputs": [],
      "name": "HostInvalid",
      "type": "error"
    },
    {
      "inputs": [],
      "name": "ScheduleInvalid",
      "type": "error"
    },
    {
      "inputs": [],
      "name": "TimeWindowInvalid",
      "type": "error"
    },
    {
      "inputs": [],
      "name": "UserDataInvalid",
      "type": "error"
    },
    {
      "inputs": [],
      "name": "ZeroAddress",
      "type": "error"
    },
    {
      "anonymous": false,
      "inputs": [
        {
          "indexed": true,
          "internalType": "contract ISuperToken",
          "name": "superToken",
          "type": "address"
        },
        {
          "indexed": true,
          "internalType": "address",
          "name": "sender",
          "type": "address"
        },
        {
          "indexed": true,
          "internalType": "address",
          "name": "receiver",
          "type": "address"
        },
        {
          "indexed": false,
          "internalType": "uint32",
          "name": "startDate",
          "type": "uint32"
        },
        {
          "indexed": false,
          "internalType": "uint32",
          "name": "startMaxDelay",
          "type": "uint32"
        },
        {
          "indexed": false,
          "internalType": "int96",
          "name": "flowRate",
          "type": "int96"
        },
        {
          "indexed": false,
          "internalType": "uint256",
          "name": "startAmount",
          "type": "uint256"
        },
        {
          "indexed": false,
          "internalType": "bytes",
          "name": "userData",
          "type": "bytes"
        }
      ],
      "name": "CreateFlowExecuted",
      "type": "event"
    },
    {
      "anonymous": false,
      "inputs": [
        {
          "indexed": true,
          "internalType": "contract ISuperToken",
          "name": "superToken",
          "type": "address"
        },
        {
          "indexed": true,
          "internalType": "address",
          "name": "sender",
          "type": "address"
        },
        {
          "indexed": true,
          "internalType": "address",
          "name": "receiver",
          "type": "address"
        },
        {
          "indexed": false,
          "internalType": "uint32",
          "name": "endDate",
          "type": "uint32"
        },
        {
          "indexed": false,
          "internalType": "bytes",
          "name": "userData",
          "type": "bytes"
        }
      ],
      "name": "DeleteFlowExecuted",
      "type": "event"
    },
    {
      "anonymous": false,
      "inputs": [
        {
          "indexed": true,
          "internalType": "contract ISuperToken",
          "name": "superToken",
          "type": "address"
        },
        {
          "indexed": true,
          "internalType": "address",
          "name": "sender",
          "type": "address"
        },
        {
          "indexed": true,
          "internalType": "address",
          "name": "receiver",
          "type": "address"
        },
        {
          "indexed": false,
          "internalType": "uint32",
          "name": "startDate",
          "type": "uint32"
        },
        {
          "indexed": false,
          "internalType": "uint32",
          "name": "startMaxDelay",
          "type": "uint32"
        },
        {
          "indexed": false,
          "internalType": "int96",
          "name": "flowRate",
          "type": "int96"
        },
        {
          "indexed": false,
          "internalType": "uint32",
          "name": "endDate",
          "type": "uint32"
        },
        {
          "indexed": false,
          "internalType": "uint256",
          "name": "startAmount",
          "type": "uint256"
        },
        {
          "indexed": false,
          "internalType": "bytes",
          "name": "userData",
          "type": "bytes"
        }
      ],
      "name": "FlowScheduleCreated",
      "type": "event"
    },
    {
      "anonymous": false,
      "inputs": [
        {
          "indexed": true,
          "internalType": "contract ISuperToken",
          "name": "superToken",
          "type": "address"
        },
        {
          "indexed": true,
          "internalType": "address",
          "name": "sender",
          "type": "address"
        },
        {
          "indexed": true,
          "internalType": "address",
          "name": "receiver",
          "type": "address"
        }
      ],
      "name": "FlowScheduleDeleted",
      "type": "event"
    },
    {
      "inputs": [
        {
          "internalType": "contract ISuperToken",
          "name": "",
          "type": "address"
        },
        {
          "internalType": "address",
          "name": "",
          "type": "address"
        },
        {
          "internalType": "bytes32",
          "name": "",
          "type": "bytes32"
        },
        {
          "internalType": "bytes",
          "name": "",
          "type": "bytes"
        },
        {
          "internalType": "bytes",
          "name": "",
          "type": "bytes"
        },
        {
          "internalType": "bytes",
          "name": "",
          "type": "bytes"
        }
      ],
      "name": "afterAgreementCreated",
      "outputs": [
        {
          "internalType": "bytes",
          "name": "",
          "type": "bytes"
        }
      ],
      "stateMutability": "nonpayable",
      "type": "function"
    },
    {
      "inputs": [
        {
          "internalType": "contract ISuperToken",
          "name": "",
          "type": "address"
        },
        {
          "internalType": "address",
          "name": "",
          "type": "address"
        },
        {
          "internalType": "bytes32",
          "name": "",
          "type": "bytes32"
        },
        {
          "internalType": "bytes",
          "name": "",
          "type": "bytes"
        },
        {
          "internalType": "bytes",
          "name": "",
          "type": "bytes"
        },
        {
          "internalType": "bytes",
          "name": "",
          "type": "bytes"
        }
      ],
      "name": "afterAgreementTerminated",
      "outputs": [
        {
          "internalType": "bytes",
          "name": "",
          "type": "bytes"
        }
      ],
      "stateMutability": "nonpayable",
      "type": "function"
    },
    {
      "inputs": [
        {
          "internalType": "contract ISuperToken",
          "name": "",
          "type": "address"
        },
        {
          "internalType": "address",
          "name": "",
          "type": "address"
        },
        {
          "internalType": "bytes32",
          "name": "",
          "type": "bytes32"
        },
        {
          "internalType": "bytes",
          "name": "",
          "type": "bytes"
        },
        {
          "internalType": "bytes",
          "name": "",
          "type": "bytes"
        },
        {
          "internalType": "bytes",
          "name": "",
          "type": "bytes"
        }
      ],
      "name": "afterAgreementUpdated",
      "outputs": [
        {
          "internalType": "bytes",
          "name": "",
          "type": "bytes"
        }
      ],
      "stateMutability": "nonpayable",
      "type": "function"
    },
    {
      "inputs": [
        {
          "internalType": "contract ISuperToken",
          "name": "",
          "type": "address"
        },
        {
          "internalType": "address",
          "name": "",
          "type": "address"
        },
        {
          "internalType": "bytes32",
          "name": "",
          "type": "bytes32"
        },
        {
          "internalType": "bytes",
          "name": "",
          "type": "bytes"
        },
        {
          "internalType": "bytes",
          "name": "",
          "type": "bytes"
        }
      ],
      "name": "beforeAgreementCreated",
      "outputs": [
        {
          "internalType": "bytes",
          "name": "",
          "type": "bytes"
        }
      ],
      "stateMutability": "view",
      "type": "function"
    },
    {
      "inputs": [
        {
          "internalType": "contract ISuperToken",
          "name": "",
          "type": "address"
        },
        {
          "internalType": "address",
          "name": "",
          "type": "address"
        },
        {
          "internalType": "bytes32",
          "name": "",
          "type": "bytes32"
        },
        {
          "internalType": "bytes",
          "name": "",
          "type": "bytes"
        },
        {
          "internalType": "bytes",
          "name": "",
          "type": "bytes"
        }
      ],
      "name": "beforeAgreementTerminated",
      "outputs": [
        {
          "internalType": "bytes",
          "name": "",
          "type": "bytes"
        }
      ],
      "stateMutability": "view",
      "type": "function"
    },
    {
      "inputs": [
        {
          "internalType": "contract ISuperToken",
          "name": "",
          "type": "address"
        },
        {
          "internalType": "address",
          "name": "",
          "type": "address"
        },
        {
          "internalType": "bytes32",
          "name": "",
          "type": "bytes32"
        },
        {
          "internalType": "bytes",
          "name": "",
          "type": "bytes"
        },
        {
          "internalType": "bytes",
          "name": "",
          "type": "bytes"
        }
      ],
      "name": "beforeAgreementUpdated",
      "outputs": [
        {
          "internalType": "bytes",
          "name": "",
          "type": "bytes"
        }
      ],
      "stateMutability": "view",
      "type": "function"
    },
    {
      "inputs": [],
      "name": "cfaV1",
      "outputs": [
        {
          "internalType": "contract ISuperfluid",
          "name": "host",
          "type": "address"
        },
        {
          "internalType": "contract IConstantFlowAgreementV1",
          "name": "cfa",
          "type": "address"
        }
      ],
      "stateMutability": "view",
      "type": "function"
    },
    {
      "inputs": [
        {
          "internalType": "contract ISuperToken",
          "name": "superToken",
          "type": "address"
        },
        {
          "internalType": "address",
          "name": "receiver",
          "type": "address"
        },
        {
          "internalType": "uint32",
          "name": "startDate",
          "type": "uint32"
        },
        {
          "internalType": "uint32",
          "name": "startMaxDelay",
          "type": "uint32"
        },
        {
          "internalType": "int96",
          "name": "flowRate",
          "type": "int96"
        },
        {
          "internalType": "uint256",
          "name": "startAmount",
          "type": "uint256"
        },
        {
          "internalType": "uint32",
          "name": "endDate",
          "type": "uint32"
        },
        {
          "internalType": "bytes",
          "name": "userData",
          "type": "bytes"
        },
        {
          "internalType": "bytes",
          "name": "ctx",
          "type": "bytes"
        }
      ],
      "name": "createFlowSchedule",
      "outputs": [
        {
          "internalType": "bytes",
          "name": "newCtx",
          "type": "bytes"
        }
      ],
      "stateMutability": "nonpayable",
      "type": "function"
    },
    {
      "inputs": [
        {
          "internalType": "contract ISuperToken",
          "name": "superToken",
          "type": "address"
        },
        {
          "internalType": "address",
          "name": "receiver",
          "type": "address"
        },
        {
          "internalType": "bytes",
          "name": "ctx",
          "type": "bytes"
        }
      ],
      "name": "deleteFlowSchedule",
      "outputs": [
        {
          "internalType": "bytes",
          "name": "newCtx",
          "type": "bytes"
        }
      ],
      "stateMutability": "nonpayable",
      "type": "function"
    },
    {
      "inputs": [
        {
          "internalType": "contract ISuperToken",
          "name": "superToken",
          "type": "address"
        },
        {
          "internalType": "address",
          "name": "sender",
          "type": "address"
        },
        {
          "internalType": "address",
          "name": "receiver",
          "type": "address"
        },
        {
          "internalType": "bytes",
          "name": "userData",
          "type": "bytes"
        }
      ],
      "name": "executeCreateFlow",
      "outputs": [
        {
          "internalType": "bool",
          "name": "success",
          "type": "bool"
        }
      ],
      "stateMutability": "nonpayable",
      "type": "function"
    },
    {
      "inputs": [
        {
          "internalType": "contract ISuperToken",
          "name": "superToken",
          "type": "address"
        },
        {
          "internalType": "address",
          "name": "sender",
          "type": "address"
        },
        {
          "internalType": "address",
          "name": "receiver",
          "type": "address"
        },
        {
          "internalType": "bytes",
          "name": "userData",
          "type": "bytes"
        }
      ],
      "name": "executeDeleteFlow",
      "outputs": [
        {
          "internalType": "bool",
          "name": "success",
          "type": "bool"
        }
      ],
      "stateMutability": "nonpayable",
      "type": "function"
    },
    {
      "inputs": [
        {
          "internalType": "bytes32",
          "name": "",
          "type": "bytes32"
        }
      ],
      "name": "flowSchedules",
      "outputs": [
        {
          "internalType": "uint32",
          "name": "startDate",
          "type": "uint32"
        },
        {
          "internalType": "uint32",
          "name": "startMaxDelay",
          "type": "uint32"
        },
        {
          "internalType": "uint32",
          "name": "endDate",
          "type": "uint32"
        },
        {
          "internalType": "int96",
          "name": "flowRate",
          "type": "int96"
        },
        {
          "internalType": "uint256",
          "name": "startAmount",
          "type": "uint256"
        },
        {
          "internalType": "bytes32",
          "name": "userData",
          "type": "bytes32"
        }
      ],
      "stateMutability": "view",
      "type": "function"
    },
    {
      "inputs": [
        {
          "internalType": "address",
          "name": "superToken",
          "type": "address"
        },
        {
          "internalType": "address",
          "name": "sender",
          "type": "address"
        },
        {
          "internalType": "address",
          "name": "receiver",
          "type": "address"
        }
      ],
      "name": "getFlowSchedule",
      "outputs": [
        {
          "components": [
            {
              "internalType": "uint32",
              "name": "startDate",
              "type": "uint32"
            },
            {
              "internalType": "uint32",
              "name": "startMaxDelay",
              "type": "uint32"
            },
            {
              "internalType": "uint32",
              "name": "endDate",
              "type": "uint32"
            },
            {
              "internalType": "int96",
              "name": "flowRate",
              "type": "int96"
            },
            {
              "internalType": "uint256",
              "name": "startAmount",
              "type": "uint256"
            },
            {
              "internalType": "bytes32",
              "name": "userData",
              "type": "bytes32"
            }
          ],
          "internalType": "struct IFlowScheduler.FlowSchedule",
          "name": "",
          "type": "tuple"
        }
      ],
      "stateMutability": "view",
      "type": "function"
    }
  ],
  "bytecode": "0x608060409080825234620001db576200176b80380380916200002282856200022f565b83398101908281830312620001db5780516001600160a01b0380821691829003620001db576020838101516001600160401b0394919391858211620001db57019285601f85011215620001db57835192858411620001ba57875194601f199462000094601f820187168501886200022f565b80875283870198848284010111620001db578884620000b4930162000253565b8751635b69006f60e11b81527fa9214cc96615e0085d3bb077758db69497dc2dce3b2b1e97bc93c3d18d83efd360048201528281602481875afa9081156200022457600091620001e0575b5016908751908882019180831088841117620001ba5783928a52848152015260018060a01b0319828160015416176001556002541617600255803b15620001db57600092836064886200018495601f82519a8b988997889563bd1c448b60e01b8752643f00000001600488015260248701525180928160448801528787019062000253565b011681010301925af18015620001d057620001a9575b82516114f29081620002798239f35b8111620001ba57815238806200019a565b634e487b7160e01b600052604160045260246000fd5b83513d6000823e3d90fd5b600080fd5b8381813d83116200021c575b620001f881836200022f565b8101031262000218575190828216820362000215575038620000ff565b80fd5b5080fd5b503d620001ec565b89513d6000823e3d90fd5b601f909101601f19168101906001600160401b03821190821017620001ba57604052565b60005b838110620002675750506000910152565b81810151838201526020016200025656fe6080604052600436101561001257600080fd5b60003560e01c806304db3b8814610c06578063230dbd2914610b9457806330d9c91514610b2357806353c11f9914610aae5780635f9e7d7714610a395780637c4e5037146106cc578063884d1f401461065b578063957ea169146105f057806398550d33146105225780639ccaadaf146103c8578063d3112b2e14610395578063d86ed3e5146103235763fc7a599a146100ab57600080fd5b3461031e576100b93661118c565b9060409392935160208101906100e3816100d5858989876111e9565b03601f198101835282610f9b565b5190209081600052600060205260406000209160026040519361010585610f65565b805463ffffffff8116865263ffffffff8160201c16602087015263ffffffff8160401c16604087015260601c600b0b60608601526001810154608086015201549060a0840191825260005260006020526000600260408220828155826001820155015563ffffffff6040840151168015908115610314575b5061030257835180156102f9576020850120905b51036102e75761023960008460018060a01b0360015416888360018060a01b036002541661021c8b61020e6040516101c881610f80565b858152604051634c8b181f60e01b60208201526001600160a01b0393841660248201529683166044880152918b16606487015260806084870152859160a4830190611041565b03601f198101855284610f9b565b6040516339255d5b60e01b81529687958694859360048501611280565b03925af180156102db577f496dde0c639fcc70501439d3522a80821e1239a059b799941d38e303cd073db59363ffffffff926040926102b8575b50015160408051929091168252602082018190526001600160a01b039283169683169590921693909182916102aa91830190611041565b0390a4602060405160018152f35b6102d4903d806000833e6102cc8183610f9b565b81019061125b565b5038610273565b6040513d6000823e3d90fd5b604051638ced320d60e01b8152600490fd5b50600090610191565b604051633a230cd960e01b8152600490fd5b905042103861017d565b600080fd5b3461031e5761033136611093565b505050505050505050608460405162461bcd60e51b815260206004820152602e60248201527f556e737570706f727465642063616c6c6261636b202d2041667465722041677260448201526d19595b595b9d0810dc99585d195960921b6064820152fd5b3461031e57600036600319011261031e57600154600254604080516001600160a01b039384168152919092166020820152f35b3461031e5760608060031936011261031e576103e2610f39565b906103eb610f4f565b604435906001600160a01b038216820361031e57600060a060405161040f81610f65565b828152826020820152826040820152828682015282608082015201526040519160208301946bffffffffffffffffffffffff1992838092871b168752851b166034840152831b166048820152603c8152818101918183106001600160401b0384111761050c5760c0938360405282519020600052600060205260406000209061049784610f65565b815463ffffffff80821680965260808501818360201c1681528160a0870191818560401c16835289880194861c600b0b8552610100600260018901549860e08b01998a5201549801978852604051988952511660208801525116604086015251600b0b908401525160808301525160a0820152f35b634e487b7160e01b600052604160045260246000fd5b3461031e57606036600319011261031e5761053b610f39565b610543610f4f565b6044356001600160401b03811161031e576105656105ec913690600401610fd7565b61056e816112d8565b6040516020810190610586816100d588868b876111e9565b51902060005260006020526000600260408220828155826001820155015560405194859460018060a01b0380809216931691167f4d2e2ca3372350ff5347640acfa1163cbbe56592c1a21f81275081dd5b6d42b2600080a4602083526020830190611041565b0390f35b3461031e57602036600319011261031e57600435600052600060205260c0604060002080549060026001820154910154906040519263ffffffff8082168552808260201c1660208601528160401c16604085015260601c600b0b6060840152608083015260a0820152f35b3461031e576106693661111e565b50505050505050608460405162461bcd60e51b815260206004820152602f60248201527f556e737570706f727465642063616c6c6261636b202d204265666f726520416760448201526e1c99595b595b9d081d5c19185d1959608a1b6064820152fd5b3461031e576106da3661118c565b6040516020949290858101906106f6816100d5858989876111e9565b51902080600052600086526040600020916040519161071483610f65565b83549363ffffffff8516808552600263ffffffff878c1c1692838c880152604087019763ffffffff8160401c16895260601c600b0b60608801526001810154608088015201549160a086019283528115918215610a2f575b82156109fb575b505061030257855180156109f25789870120905b51036102e757608083015161095f575b63ffffffff61086e9451161560001461092f5760005260008752600060026040822082815582600182015501555b6000848787836060870151600b0b6108518d61020e60018060a01b03600154169660018060a01b036002541694604051916107ff83610f80565b8783526040516394229ecb60e01b958101959095526001600160a01b03988916602486015288166044850152968b166064840152608483019690965260a060a4830152909485919060c4830190611041565b6040516339255d5b60e01b81529889958694859360048501611280565b03925af19283156102db577fdcab26a5ac743e62a3f426d2d95cbfaf18749ea5632c5d8199662c2d499a497c93610914575b5061090863ffffffff8351169163ffffffff89850151169360806060820151600b0b9101519060405195869586528b8601526040850152606084015260a0608084015260018060a01b03169660018060a01b03169560018060a01b03169460a0830190611041565b0390a460405160018152f35b610928903d806000833e6102cc8183610f9b565b50876108a0565b600090815280885260409020805477ffffffffffffffffffffffff00000000ffffffffffffffff191690556107c5565b806000526000885260006001604082200155600088886064608087015160405194859384926323b872dd60e01b845260018060a01b038092166004850152818a16602485015260448401528c165af180156102db576109bf575b50610797565b8881813d83116109eb575b6109d48183610f9b565b8101031261031e57518015150361031e57886109b9565b503d6109ca565b50600090610787565b01905063ffffffff8111610a195763ffffffff429116108a80610773565b634e487b7160e01b600052601160045260246000fd5b428111925061076c565b3461031e57610a473661111e565b50505050505050608460405162461bcd60e51b815260206004820152603360248201527f556e737570706f727465642063616c6c6261636b202d20204265666f7265204160448201527219dc99595b595b9d0815195c9b5a5b985d1959606a1b6064820152fd5b3461031e57610abc36611093565b505050505050505050608460405162461bcd60e51b815260206004820152603160248201527f556e737570706f727465642063616c6c6261636b202d2041667465722041677260448201527019595b595b9d0815195c9b5a5b985d1959607a1b6064820152fd5b3461031e57610b313661111e565b50505050505050608460405162461bcd60e51b815260206004820152602f60248201527f556e737570706f727465642063616c6c6261636b202d204265666f726520416760448201526e1c99595b595b9d0810dc99585d1959608a1b6064820152fd5b3461031e57610ba236611093565b505050505050505050608460405162461bcd60e51b815260206004820152602e60248201527f556e737570706f727465642063616c6c6261636b202d2041667465722041677260448201526d19595b595b9d08155c19185d195960921b6064820152fd5b3461031e5761012036600319011261031e57610c20610f39565b610c28610f4f565b906044359063ffffffff8216820361031e576064359063ffffffff8216820361031e576084359182600b0b830361031e5760c4359063ffffffff8216820361031e576001600160401b039160e43583811161031e57610c8b903690600401610fd7565b926101043590811161031e57610ca5903690600401610fd7565b95610caf876112d8565b956001600160a01b038916158015610f24575b610f12576001600160a01b03861615610f005763ffffffff8216610eb25763ffffffff841615801590610ea4575b610302575b63ffffffff8316151580610e94575b610302578863ffffffff8094610e7093827f78e3ea8b5a93e598a03e9162fc7498f01df4be2d6556d67eb67ecb9314e92dbd98876105ec9f8e8e6002928f8051801515600014610e87576020610da5920120935b8860405197610d6689610f65565b1687528888166020880152888b16604088015289600b0b606088015260a435608088015260a087019485526100d56040519384926020840196876111e9565b519020600052600060205260806040600020938681511685549067ffffffff00000000602084015160201b166bffffffff0000000000000000604085015160401b1691606085015160601b6bffffffffffffffffffffffff60601b16936001600160401b0360c01b161717171785550151600184015551910155604051988998168852166020870152600b0b604086015216606084015260a435608084015260c060a084015260018060a01b03169660018060a01b03169560018060a01b03169460c0830190611041565b0390a4604051918291602083526020830190611041565b5050610da5600093610d58565b504263ffffffff84161115610d04565b5063ffffffff831615610cf0565b4263ffffffff831611801590610eda575b15610cf557604051633a230cd960e01b8152600490fd5b5063ffffffff831663ffffffff831610158015610ec3575063ffffffff83161515610ec3565b60405163d92e233d60e01b8152600490fd5b60405163a9c6791d60e01b8152600490fd5b506001600160a01b0389811690881614610cc2565b600435906001600160a01b038216820361031e57565b602435906001600160a01b038216820361031e57565b60c081019081106001600160401b0382111761050c57604052565b602081019081106001600160401b0382111761050c57604052565b90601f801991011681019081106001600160401b0382111761050c57604052565b6001600160401b03811161050c57601f01601f191660200190565b81601f8201121561031e57803590610fee82610fbc565b92610ffc6040519485610f9b565b8284526020838301011161031e57816000926020809301838601378301015290565b60005b8381106110315750506000910152565b8181015183820152602001611021565b9060209161105a8151809281855285808601910161101e565b601f01601f1916010190565b9181601f8401121561031e578235916001600160401b03831161031e576020838186019501011161031e57565b60c060031982011261031e576001600160a01b0391600435838116810361031e5792602435908116810361031e5791604435916001600160401b0360643581811161031e57836110e591600401611066565b9390939260843583811161031e578261110091600401611066565b9390939260a43591821161031e5761111a91600401611066565b9091565b9060a060031983011261031e576001600160a01b0391600435838116810361031e5792602435908116810361031e5791604435916001600160401b039160643583811161031e578261117291600401611066565b9390939260843591821161031e5761111a91600401611066565b608060031982011261031e576001600160a01b0390600435828116810361031e5792602435838116810361031e5792604435908116810361031e5791606435906001600160401b03821161031e576111e691600401610fd7565b90565b6bffffffffffffffffffffffff19606092831b8116825292821b8316601482015292901b166028820152603c0190565b81601f8201121561031e57805161122f81610fbc565b9261123d6040519485610f9b565b8184526020828401011161031e576111e6916020808501910161101e565b9060208282031261031e5781516001600160401b03811161031e576111e69201611219565b6001600160a01b0390911681526060602082018190526111e69391926112a891840190611041565b916040818403910152611041565b519060ff8216820361031e57565b51906001600160a01b038216820361031e57565b8051909190156114b4576001546001600160a01b03908116338190036114a2576113259360409081518093631fb6491d60e11b82526020600483015281806000998a956024830190611041565b03915afa918215611498578592611368575b5050606001511691505b6001600160a01b0382161561135257565b634e487b7160e01b600052600160045260246000fd5b9091503d8086833e61137a8183610f9b565b8101906020818303126114785780516001600160401b0391828211611480570191610160938484830312611480578051948501858110848211176114845781526113c3846112b6565b85526113d1602085016112b6565b602086015280840151908501526113ea606084016112c4565b606085015260808301516001600160e01b03198116810361148057608085015260a083015191821161147c57611421918301611219565b60a083015260c081015160c083015260e081015160e083015261010080820151908301526101206114538183016112c4565b9083015261014080910151908382168203611478578201529192508291606038611337565b8580fd5b8680fd5b8780fd5b634e487b7160e01b89526041600452602489fd5b81513d87823e3d90fd5b604051632772d7f360e21b8152600490fd5b33915061134156fea2646970667358221220ba84152496bb4cfdab7af638ebd11263924663f680607ac5369f0982c0690d3264736f6c63430008110033",
  "linkReferences": {},
  "deployedLinkReferences": {}
}